{
  "contractName": "TodoList",
  "abi": [
    {
      "inputs": [],
      "stateMutability": "nonpayable",
      "type": "constructor"
    },
    {
      "anonymous": false,
      "inputs": [
        {
          "indexed": false,
          "internalType": "uint256",
          "name": "id",
          "type": "uint256"
        },
        {
          "indexed": false,
          "internalType": "string",
          "name": "content",
          "type": "string"
        },
        {
          "indexed": false,
          "internalType": "bool",
          "name": "completed",
          "type": "bool"
        }
      ],
      "name": "TaskEvent",
      "type": "event"
    },
    {
      "inputs": [],
      "name": "taskCount",
      "outputs": [
        {
          "internalType": "uint256",
          "name": "",
          "type": "uint256"
        }
      ],
      "stateMutability": "view",
      "type": "function",
      "constant": true
    },
    {
      "inputs": [
        {
          "internalType": "uint256",
          "name": "",
          "type": "uint256"
        }
      ],
      "name": "tasks",
      "outputs": [
        {
          "internalType": "uint256",
          "name": "id",
          "type": "uint256"
        },
        {
          "internalType": "string",
          "name": "content",
          "type": "string"
        },
        {
          "internalType": "bool",
          "name": "completed",
          "type": "bool"
        }
      ],
      "stateMutability": "view",
      "type": "function",
      "constant": true
    },
    {
      "inputs": [],
      "name": "userCount",
      "outputs": [
        {
          "internalType": "uint256",
          "name": "",
          "type": "uint256"
        }
      ],
      "stateMutability": "view",
      "type": "function",
      "constant": true
    },
    {
      "inputs": [
        {
          "internalType": "address",
          "name": "",
          "type": "address"
        }
      ],
      "name": "users",
      "outputs": [
        {
          "internalType": "uint256",
          "name": "id",
          "type": "uint256"
        },
        {
          "internalType": "address",
          "name": "userAddress",
          "type": "address"
        },
        {
          "internalType": "bool",
          "name": "exists",
          "type": "bool"
        }
      ],
      "stateMutability": "view",
      "type": "function",
      "constant": true
    },
    {
      "inputs": [
        {
          "internalType": "string",
          "name": "_content",
          "type": "string"
        }
      ],
      "name": "createTask",
      "outputs": [],
      "stateMutability": "nonpayable",
      "type": "function"
    },
    {
      "inputs": [
        {
          "internalType": "uint256",
          "name": "_id",
          "type": "uint256"
        }
      ],
      "name": "removeTask",
      "outputs": [],
      "stateMutability": "nonpayable",
      "type": "function"
    },
    {
      "inputs": [
        {
          "internalType": "uint256",
          "name": "_id",
          "type": "uint256"
        }
      ],
      "name": "toggleCompleted",
      "outputs": [],
      "stateMutability": "nonpayable",
      "type": "function"
    },
    {
      "inputs": [],
      "name": "getUserTasks",
      "outputs": [
        {
          "internalType": "uint256[]",
          "name": "",
          "type": "uint256[]"
        }
      ],
      "stateMutability": "view",
      "type": "function",
      "constant": true
    }
  ],
  "bytecode": "0x60806040526000805560006001553480156200001a57600080fd5b50620000616040518060400160405280601581526020017f436865636b206f7574205a616368636f6f6b2e696f00000000000000000000008152506200006760201b60201c565b620006ab565b6000808154809291906200007b90620005ee565b919050555060405180606001604052806000548152602001828152602001600015158152506002600080548152602001908152602001600020600082015181600001556020820151816001019080519060200190620000dc929190620003a7565b5060408201518160020160006101000a81548160ff02191690831515021790555090505060011515600360003373ffffffffffffffffffffffffffffffffffffffff1673ffffffffffffffffffffffffffffffffffffffff16815260200190815260200160002060010160149054906101000a900460ff1615151415620001ce57600360003373ffffffffffffffffffffffffffffffffffffffff1673ffffffffffffffffffffffffffffffffffffffff168152602001908152602001600020600201600054908060018154018082558091505060019003906000526020600020016000909190919091505562000364565b60016000815480929190620001e390620005ee565b91905055506060604051806080016040528060005481526020013373ffffffffffffffffffffffffffffffffffffffff16815260200160011515815260200182815250600360003373ffffffffffffffffffffffffffffffffffffffff1673ffffffffffffffffffffffffffffffffffffffff1681526020019081526020016000206000820151816000015560208201518160010160006101000a81548173ffffffffffffffffffffffffffffffffffffffff021916908373ffffffffffffffffffffffffffffffffffffffff16021790555060408201518160010160146101000a81548160ff0219169083151502179055506060820151816002019080519060200190620002f492919062000438565b50905050600360003373ffffffffffffffffffffffffffffffffffffffff1673ffffffffffffffffffffffffffffffffffffffff16815260200190815260200160002060020160189080600181540180825580915050600190039060005260206000200160009091909190915055505b7f0a76fbd31035c1e6f90f68610447e2810f3f7579b358eafc9ef8f55640be9a526000548260006040516200039c939291906200050c565b60405180910390a150565b828054620003b590620005b8565b90600052602060002090601f016020900481019282620003d9576000855562000425565b82601f10620003f457805160ff191683800117855562000425565b8280016001018555821562000425579182015b828111156200042457825182559160200191906001019062000407565b5b5090506200043491906200048a565b5090565b82805482825590600052602060002090810192821562000477579160200282015b828111156200047657825182559160200191906001019062000459565b5b5090506200048691906200048a565b5090565b5b80821115620004a55760008160009055506001016200048b565b5090565b620004b4816200056c565b82525050565b6000620004c78262000550565b620004d381856200055b565b9350620004e581856020860162000582565b620004f0816200069a565b840191505092915050565b620005068162000578565b82525050565b6000606082019050620005236000830186620004fb565b8181036020830152620005378185620004ba565b9050620005486040830184620004a9565b949350505050565b600081519050919050565b600082825260208201905092915050565b60008115159050919050565b6000819050919050565b60005b83811015620005a257808201518184015260208101905062000585565b83811115620005b2576000848401525b50505050565b60006002820490506001821680620005d157607f821691505b60208210811415620005e857620005e76200066b565b5b50919050565b6000620005fb8262000578565b91507fffffffffffffffffffffffffffffffffffffffffffffffffffffffffffffffff8214156200063157620006306200063c565b5b600182019050919050565b7f4e487b7100000000000000000000000000000000000000000000000000000000600052601160045260246000fd5b7f4e487b7100000000000000000000000000000000000000000000000000000000600052602260045260246000fd5b6000601f19601f8301169050919050565b61111980620006bb6000396000f3fe608060405234801561001057600080fd5b50600436106100885760003560e01c80638d9776721161005b5780638d97767214610101578063a87430ba14610133578063b6cb58a514610165578063c30841171461018357610088565b806307973ccf1461008d578063111002aa146100ab57806334112f5f146100c7578063455f5024146100e5575b600080fd5b61009561019f565b6040516100a29190610d92565b60405180910390f35b6100c560048036038101906100c09190610c0f565b6101a5565b005b6100cf6104d9565b6040516100dc9190610d70565b60405180910390f35b6100ff60048036038101906100fa9190610c58565b610607565b005b61011b60048036038101906101169190610c58565b61079a565b60405161012a93929190610de4565b60405180910390f35b61014d60048036038101906101489190610be2565b610859565b60405161015c93929190610dad565b60405180910390f35b61016d6108b0565b60405161017a9190610d92565b60405180910390f35b61019d60048036038101906101989190610c58565b6108b6565b005b60015481565b6000808154809291906101b790610fba565b919050555060405180606001604052806000548152602001828152602001600015158152506002600080548152602001908152602001600020600082015181600001556020820151816001019080519060200190610216929190610a18565b5060408201518160020160006101000a81548160ff02191690831515021790555090505060011515600360003373ffffffffffffffffffffffffffffffffffffffff1673ffffffffffffffffffffffffffffffffffffffff16815260200190815260200160002060010160149054906101000a900460ff161515141561030657600360003373ffffffffffffffffffffffffffffffffffffffff1673ffffffffffffffffffffffffffffffffffffffff1681526020019081526020016000206002016000549080600181540180825580915050600190039060005260206000200160009091909190915055610498565b6001600081548092919061031990610fba565b91905055506060604051806080016040528060005481526020013373ffffffffffffffffffffffffffffffffffffffff16815260200160011515815260200182815250600360003373ffffffffffffffffffffffffffffffffffffffff1673ffffffffffffffffffffffffffffffffffffffff1681526020019081526020016000206000820151816000015560208201518160010160006101000a81548173ffffffffffffffffffffffffffffffffffffffff021916908373ffffffffffffffffffffffffffffffffffffffff16021790555060408201518160010160146101000a81548160ff0219169083151502179055506060820151816002019080519060200190610428929190610a9e565b50905050600360003373ffffffffffffffffffffffffffffffffffffffff1673ffffffffffffffffffffffffffffffffffffffff16815260200190815260200160002060020160189080600181540180825580915050600190039060005260206000200160009091909190915055505b7f0a76fbd31035c1e6f90f68610447e2810f3f7579b358eafc9ef8f55640be9a526000548260006040516104ce93929190610de4565b60405180910390a150565b60606000600360003373ffffffffffffffffffffffffffffffffffffffff1673ffffffffffffffffffffffffffffffffffffffff168152602001908152602001600020604051806080016040529081600082015481526020016001820160009054906101000a900473ffffffffffffffffffffffffffffffffffffffff1673ffffffffffffffffffffffffffffffffffffffff1673ffffffffffffffffffffffffffffffffffffffff1681526020016001820160149054906101000a900460ff16151515158152602001600282018054806020026020016040519081016040528092919081815260200182805480156105f157602002820191906000526020600020905b8154815260200190600101908083116105dd575b5050505050815250509050806060015191505090565b6000600260008381526020019081526020016000206040518060600160405290816000820154815260200160018201805461064190610f57565b80601f016020809104026020016040519081016040528092919081815260200182805461066d90610f57565b80156106ba5780601f1061068f576101008083540402835291602001916106ba565b820191906000526020600020905b81548152906001019060200180831161069d57829003601f168201915b505050505081526020016002820160009054906101000a900460ff1615151515815250509050806040015115816040019015159081151581525050806002600084815260200190815260200160002060008201518160000155602082015181600101908051906020019061072f929190610a18565b5060408201518160020160006101000a81548160ff0219169083151502179055509050507f0a76fbd31035c1e6f90f68610447e2810f3f7579b358eafc9ef8f55640be9a52828260200151836040015160405161078e93929190610de4565b60405180910390a15050565b60026020528060005260406000206000915090508060000154908060010180546107c390610f57565b80601f01602080910402602001604051908101604052809291908181526020018280546107ef90610f57565b801561083c5780601f106108115761010080835404028352916020019161083c565b820191906000526020600020905b81548152906001019060200180831161081f57829003601f168201915b5050505050908060020160009054906101000a900460ff16905083565b60036020528060005260406000206000915090508060000154908060010160009054906101000a900473ffffffffffffffffffffffffffffffffffffffff16908060010160149054906101000a900460ff16905083565b60005481565b600060026000838152602001908152602001600020604051806060016040529081600082015481526020016001820180546108f090610f57565b80601f016020809104026020016040519081016040528092919081815260200182805461091c90610f57565b80156109695780601f1061093e57610100808354040283529160200191610969565b820191906000526020600020905b81548152906001019060200180831161094c57829003601f168201915b505050505081526020016002820160009054906101000a900460ff1615151515815250509050600260008381526020019081526020016000206000808201600090556001820160006109bb9190610aeb565b6002820160006101000a81549060ff021916905550507f0a76fbd31035c1e6f90f68610447e2810f3f7579b358eafc9ef8f55640be9a528282602001518360400151604051610a0c93929190610de4565b60405180910390a15050565b828054610a2490610f57565b90600052602060002090601f016020900481019282610a465760008555610a8d565b82601f10610a5f57805160ff1916838001178555610a8d565b82800160010185558215610a8d579182015b82811115610a8c578251825591602001919060010190610a71565b5b509050610a9a9190610b2b565b5090565b828054828255906000526020600020908101928215610ada579160200282015b82811115610ad9578251825591602001919060010190610abe565b5b509050610ae79190610b2b565b5090565b508054610af790610f57565b6000825580601f10610b095750610b28565b601f016020900490600052602060002090810190610b279190610b2b565b5b50565b5b80821115610b44576000816000905550600101610b2c565b5090565b6000610b5b610b5684610e47565b610e22565b905082815260208101848484011115610b7757610b76611095565b5b610b82848285610f15565b509392505050565b600081359050610b99816110b5565b92915050565b600082601f830112610bb457610bb3611090565b5b8135610bc4848260208601610b48565b91505092915050565b600081359050610bdc816110cc565b92915050565b600060208284031215610bf857610bf761109f565b5b6000610c0684828501610b8a565b91505092915050565b600060208284031215610c2557610c2461109f565b5b600082013567ffffffffffffffff811115610c4357610c4261109a565b5b610c4f84828501610b9f565b91505092915050565b600060208284031215610c6e57610c6d61109f565b5b6000610c7c84828501610bcd565b91505092915050565b6000610c918383610d52565b60208301905092915050565b610ca681610ecd565b82525050565b6000610cb782610e88565b610cc18185610eab565b9350610ccc83610e78565b8060005b83811015610cfd578151610ce48882610c85565b9750610cef83610e9e565b925050600181019050610cd0565b5085935050505092915050565b610d1381610edf565b82525050565b6000610d2482610e93565b610d2e8185610ebc565b9350610d3e818560208601610f24565b610d47816110a4565b840191505092915050565b610d5b81610f0b565b82525050565b610d6a81610f0b565b82525050565b60006020820190508181036000830152610d8a8184610cac565b905092915050565b6000602082019050610da76000830184610d61565b92915050565b6000606082019050610dc26000830186610d61565b610dcf6020830185610c9d565b610ddc6040830184610d0a565b949350505050565b6000606082019050610df96000830186610d61565b8181036020830152610e0b8185610d19565b9050610e1a6040830184610d0a565b949350505050565b6000610e2c610e3d565b9050610e388282610f89565b919050565b6000604051905090565b600067ffffffffffffffff821115610e6257610e61611061565b5b610e6b826110a4565b9050602081019050919050565b6000819050602082019050919050565b600081519050919050565b600081519050919050565b6000602082019050919050565b600082825260208201905092915050565b600082825260208201905092915050565b6000610ed882610eeb565b9050919050565b60008115159050919050565b600073ffffffffffffffffffffffffffffffffffffffff82169050919050565b6000819050919050565b82818337600083830152505050565b60005b83811015610f42578082015181840152602081019050610f27565b83811115610f51576000848401525b50505050565b60006002820490506001821680610f6f57607f821691505b60208210811415610f8357610f82611032565b5b50919050565b610f92826110a4565b810181811067ffffffffffffffff82111715610fb157610fb0611061565b5b80604052505050565b6000610fc582610f0b565b91507fffffffffffffffffffffffffffffffffffffffffffffffffffffffffffffffff821415610ff857610ff7611003565b5b600182019050919050565b7f4e487b7100000000000000000000000000000000000000000000000000000000600052601160045260246000fd5b7f4e487b7100000000000000000000000000000000000000000000000000000000600052602260045260246000fd5b7f4e487b7100000000000000000000000000000000000000000000000000000000600052604160045260246000fd5b600080fd5b600080fd5b600080fd5b600080fd5b6000601f19601f8301169050919050565b6110be81610ecd565b81146110c957600080fd5b50565b6110d581610f0b565b81146110e057600080fd5b5056fea2646970667358221220c0fffb8962e3c3fb5b2421211ae48945c1fc60ee91de557e583183fbd6ada68f64736f6c63430008050033",
  "immutableReferences": {},
  "source": "// SPDX-License-Identifier: MIT\r\npragma solidity 0.8.5;\r\n\r\n\r\ncontract TodoList {\r\n\r\n    // state variables written to blockchain\r\n    uint public taskCount = 0;\r\n    uint public userCount = 0;\r\n\r\n    // Task Data Type\r\n    struct Task {\r\n        uint id;\r\n        string content;\r\n        bool completed;\r\n    }\r\n    mapping(uint => Task) public tasks;\r\n    // this is an ethereum event for clients\r\n    event TaskEvent(\r\n        uint id,\r\n        string content,\r\n        bool completed\r\n    );\r\n\r\n    // // Data type for storing the users task\r\n    struct User {\r\n        uint id;\r\n        address userAddress; // this will act as a foreign key \r\n        bool exists;\r\n        uint[] taskIds;\r\n    }\r\n    mapping(address => User) public users;\r\n\r\n    \r\n\r\n\r\n\r\n\r\n    // creates a task\r\n    function createTask(string memory _content) public {\r\n\r\n        // increment the taskCount which is used as the id for each task\r\n        taskCount ++;\r\n\r\n        // add the task to the tasks\r\n        tasks[taskCount] = Task(taskCount, _content, false); \r\n\r\n        // if in the users mapping the address is equal to the sender\r\n        // this basically means the user has posted a task before\r\n        if (users[msg.sender].exists == true){ \r\n            users[msg.sender].taskIds.push(taskCount);\r\n        } else {\r\n            userCount ++;\r\n            uint [] memory taskIDArray;\r\n            users[msg.sender] = User(taskCount, msg.sender, true, taskIDArray);\r\n            users[msg.sender].taskIds.push(24);\r\n        }\r\n        \r\n\r\n        emit TaskEvent(taskCount, _content, false);\r\n\r\n    }\r\n\r\n    function removeTask(uint _id) public {\r\n\r\n        Task memory _task = tasks[_id];\r\n\r\n        delete(tasks[_id]);\r\n\r\n        emit TaskEvent(_id, _task.content, _task.completed);\r\n    }\r\n\r\n\r\n    // toggles completion of the task\r\n    function toggleCompleted(uint _id) public {\r\n\r\n        Task memory _task = tasks[_id];\r\n        // toggle by turning it to the opposite\r\n        _task.completed = !_task.completed;\r\n        tasks[_id] = _task;\r\n\r\n        emit TaskEvent(_id, _task.content, _task.completed);\r\n    }\r\n\r\n\r\n    function getUserTasks() public view returns(uint [] memory) {\r\n        User memory user = users[msg.sender];\r\n        return user.taskIds;\r\n    }\r\n \r\n    constructor() {\r\n\r\n        // Create a base task on creation of the contract\r\n        createTask(\"Check out Zachcook.io\");\r\n    }\r\n\r\n}",
  "sourcePath": "C:/Users/Crypto Thoughts/Desktop/dev/crypto/ToDoDapp/smartcontracts/contracts/TodoList.sol",
  "compiler": {
    "name": "solc",
    "version": "0.8.5+commit.a4f2e591.Emscripten.clang"
  },
  "schemaVersion": "3.4.1",
  "updatedAt": "2021-06-16T21:26:25.118Z",
  "networkType": "ethereum",
  "devdoc": {
    "kind": "dev",
    "methods": {},
    "version": 1
  },
  "userdoc": {
    "kind": "user",
    "methods": {},
    "version": 1
  }
}