{
  "contractName": "TodoList",
  "abi": [
    {
      "inputs": [],
      "stateMutability": "nonpayable",
      "type": "constructor"
    },
    {
      "anonymous": false,
      "inputs": [
        {
          "indexed": false,
          "internalType": "uint256",
          "name": "id",
          "type": "uint256"
        },
        {
          "indexed": false,
          "internalType": "string",
          "name": "content",
          "type": "string"
        },
        {
          "indexed": false,
          "internalType": "bool",
          "name": "completed",
          "type": "bool"
        }
      ],
      "name": "TaskEvent",
      "type": "event"
    },
    {
      "inputs": [],
      "name": "taskCount",
      "outputs": [
        {
          "internalType": "uint256",
          "name": "",
          "type": "uint256"
        }
      ],
      "stateMutability": "view",
      "type": "function"
    },
    {
      "inputs": [
        {
          "internalType": "uint256",
          "name": "",
          "type": "uint256"
        }
      ],
      "name": "tasks",
      "outputs": [
        {
          "internalType": "uint256",
          "name": "id",
          "type": "uint256"
        },
        {
          "internalType": "string",
          "name": "content",
          "type": "string"
        },
        {
          "internalType": "bool",
          "name": "completed",
          "type": "bool"
        }
      ],
      "stateMutability": "view",
      "type": "function"
    },
    {
      "inputs": [],
      "name": "userCount",
      "outputs": [
        {
          "internalType": "uint256",
          "name": "",
          "type": "uint256"
        }
      ],
      "stateMutability": "view",
      "type": "function"
    },
    {
      "inputs": [
        {
          "internalType": "address",
          "name": "",
          "type": "address"
        }
      ],
      "name": "users",
      "outputs": [
        {
          "internalType": "uint256",
          "name": "id",
          "type": "uint256"
        },
        {
          "internalType": "address",
          "name": "userAddress",
          "type": "address"
        }
      ],
      "stateMutability": "view",
      "type": "function"
    },
    {
      "inputs": [
        {
          "internalType": "string",
          "name": "_content",
          "type": "string"
        }
      ],
      "name": "createTask",
      "outputs": [],
      "stateMutability": "nonpayable",
      "type": "function"
    },
    {
      "inputs": [
        {
          "internalType": "uint256",
          "name": "_id",
          "type": "uint256"
        }
      ],
      "name": "removeTask",
      "outputs": [],
      "stateMutability": "nonpayable",
      "type": "function"
    },
    {
      "inputs": [
        {
          "internalType": "uint256",
          "name": "_id",
          "type": "uint256"
        }
      ],
      "name": "toggleCompleted",
      "outputs": [],
      "stateMutability": "nonpayable",
      "type": "function"
    }
  ],
  "bytecode": "0x60806040526000805560006001553480156200001a57600080fd5b50620000616040518060400160405280601581526020017f436865636b206f7574205a616368636f6f6b2e696f00000000000000000000008152506200006760201b60201c565b62000689565b6000808154809291906200007b90620005cc565b919050555060405180606001604052806000548152602001828152602001600015158152506003600080548152602001908152602001600020600082015181600001556020820151816001019080519060200190620000dc929190620003a0565b5060408201518160020160006101000a81548160ff0219169083151502179055509050503373ffffffffffffffffffffffffffffffffffffffff16600260003373ffffffffffffffffffffffffffffffffffffffff1673ffffffffffffffffffffffffffffffffffffffff16815260200190815260200160002060010160009054906101000a900473ffffffffffffffffffffffffffffffffffffffff1673ffffffffffffffffffffffffffffffffffffffff1614156200020857600260003373ffffffffffffffffffffffffffffffffffffffff1673ffffffffffffffffffffffffffffffffffffffff16815260200190815260200160002060020160005490806001815401808255809150506001900390600052602060002001600090919091909150556200035d565b600160008154809291906200021d90620005cc565b91905055506200022c62000431565b60015481600001818152505033816020019073ffffffffffffffffffffffffffffffffffffffff16908173ffffffffffffffffffffffffffffffffffffffff1681525050600260003373ffffffffffffffffffffffffffffffffffffffff1673ffffffffffffffffffffffffffffffffffffffff16815260200190815260200160002060020160005490806001815401808255809150506001900390600052602060002001600090919091909150556040518060600160405280600054815260200183815260200160001515815250600360008054815260200190815260200160002060008201518160000155602082015181600101908051906020019062000337929190620003a0565b5060408201518160020160006101000a81548160ff021916908315150217905550905050505b7f0a76fbd31035c1e6f90f68610447e2810f3f7579b358eafc9ef8f55640be9a526000548260006040516200039593929190620004ea565b60405180910390a150565b828054620003ae9062000596565b90600052602060002090601f016020900481019282620003d257600085556200041e565b82601f10620003ed57805160ff19168380011785556200041e565b828001600101855582156200041e579182015b828111156200041d57825182559160200191906001019062000400565b5b5090506200042d919062000468565b5090565b604051806060016040528060008152602001600073ffffffffffffffffffffffffffffffffffffffff168152602001606081525090565b5b808211156200048357600081600090555060010162000469565b5090565b62000492816200054a565b82525050565b6000620004a5826200052e565b620004b1818562000539565b9350620004c381856020860162000560565b620004ce8162000678565b840191505092915050565b620004e48162000556565b82525050565b6000606082019050620005016000830186620004d9565b818103602083015262000515818562000498565b905062000526604083018462000487565b949350505050565b600081519050919050565b600082825260208201905092915050565b60008115159050919050565b6000819050919050565b60005b838110156200058057808201518184015260208101905062000563565b8381111562000590576000848401525b50505050565b60006002820490506001821680620005af57607f821691505b60208210811415620005c657620005c562000649565b5b50919050565b6000620005d98262000556565b91507fffffffffffffffffffffffffffffffffffffffffffffffffffffffffffffffff8214156200060f576200060e6200061a565b5b600182019050919050565b7f4e487b7100000000000000000000000000000000000000000000000000000000600052601160045260246000fd5b7f4e487b7100000000000000000000000000000000000000000000000000000000600052602260045260246000fd5b6000601f19601f8301169050919050565b610ea180620006996000396000f3fe608060405234801561001057600080fd5b506004361061007d5760003560e01c80638d9776721161005b5780638d977672146100d8578063a87430ba1461010a578063b6cb58a51461013b578063c3084117146101595761007d565b806307973ccf14610082578063111002aa146100a0578063455f5024146100bc575b600080fd5b61008a610175565b6040516100979190610b61565b60405180910390f35b6100ba60048036038101906100b59190610a85565b61017b565b005b6100d660048036038101906100d19190610ace565b6104a6565b005b6100f260048036038101906100ed9190610ace565b610639565b60405161010193929190610ba5565b60405180910390f35b610124600480360381019061011f9190610a58565b6106f8565b604051610132929190610b7c565b60405180910390f35b61014361073c565b6040516101509190610b61565b60405180910390f35b610173600480360381019061016e9190610ace565b610742565b005b60015481565b60008081548092919061018d90610d42565b9190505550604051806060016040528060005481526020018281526020016000151581525060036000805481526020019081526020016000206000820151816000015560208201518160010190805190602001906101ec9291906108a4565b5060408201518160020160006101000a81548160ff0219169083151502179055509050503373ffffffffffffffffffffffffffffffffffffffff16600260003373ffffffffffffffffffffffffffffffffffffffff1673ffffffffffffffffffffffffffffffffffffffff16815260200190815260200160002060010160009054906101000a900473ffffffffffffffffffffffffffffffffffffffff1673ffffffffffffffffffffffffffffffffffffffff16141561031657600260003373ffffffffffffffffffffffffffffffffffffffff1673ffffffffffffffffffffffffffffffffffffffff1681526020019081526020016000206002016000549080600181540180825580915050600190039060005260206000200160009091909190915055610465565b6001600081548092919061032990610d42565b919050555061033661092a565b60015481600001818152505033816020019073ffffffffffffffffffffffffffffffffffffffff16908173ffffffffffffffffffffffffffffffffffffffff1681525050600260003373ffffffffffffffffffffffffffffffffffffffff1673ffffffffffffffffffffffffffffffffffffffff16815260200190815260200160002060020160005490806001815401808255809150506001900390600052602060002001600090919091909150556040518060600160405280600054815260200183815260200160001515815250600360008054815260200190815260200160002060008201518160000155602082015181600101908051906020019061043f9291906108a4565b5060408201518160020160006101000a81548160ff021916908315150217905550905050505b7f0a76fbd31035c1e6f90f68610447e2810f3f7579b358eafc9ef8f55640be9a5260005482600060405161049b93929190610ba5565b60405180910390a150565b600060036000838152602001908152602001600020604051806060016040529081600082015481526020016001820180546104e090610cdf565b80601f016020809104026020016040519081016040528092919081815260200182805461050c90610cdf565b80156105595780601f1061052e57610100808354040283529160200191610559565b820191906000526020600020905b81548152906001019060200180831161053c57829003601f168201915b505050505081526020016002820160009054906101000a900460ff161515151581525050905080604001511581604001901515908115158152505080600360008481526020019081526020016000206000820151816000015560208201518160010190805190602001906105ce9291906108a4565b5060408201518160020160006101000a81548160ff0219169083151502179055509050507f0a76fbd31035c1e6f90f68610447e2810f3f7579b358eafc9ef8f55640be9a52828260200151836040015160405161062d93929190610ba5565b60405180910390a15050565b600360205280600052604060002060009150905080600001549080600101805461066290610cdf565b80601f016020809104026020016040519081016040528092919081815260200182805461068e90610cdf565b80156106db5780601f106106b0576101008083540402835291602001916106db565b820191906000526020600020905b8154815290600101906020018083116106be57829003601f168201915b5050505050908060020160009054906101000a900460ff16905083565b60026020528060005260406000206000915090508060000154908060010160009054906101000a900473ffffffffffffffffffffffffffffffffffffffff16905082565b60005481565b6000600360008381526020019081526020016000206040518060600160405290816000820154815260200160018201805461077c90610cdf565b80601f01602080910402602001604051908101604052809291908181526020018280546107a890610cdf565b80156107f55780601f106107ca576101008083540402835291602001916107f5565b820191906000526020600020905b8154815290600101906020018083116107d857829003601f168201915b505050505081526020016002820160009054906101000a900460ff1615151515815250509050600360008381526020019081526020016000206000808201600090556001820160006108479190610961565b6002820160006101000a81549060ff021916905550507f0a76fbd31035c1e6f90f68610447e2810f3f7579b358eafc9ef8f55640be9a52828260200151836040015160405161089893929190610ba5565b60405180910390a15050565b8280546108b090610cdf565b90600052602060002090601f0160209004810192826108d25760008555610919565b82601f106108eb57805160ff1916838001178555610919565b82800160010185558215610919579182015b828111156109185782518255916020019190600101906108fd565b5b50905061092691906109a1565b5090565b604051806060016040528060008152602001600073ffffffffffffffffffffffffffffffffffffffff168152602001606081525090565b50805461096d90610cdf565b6000825580601f1061097f575061099e565b601f01602090049060005260206000209081019061099d91906109a1565b5b50565b5b808211156109ba5760008160009055506001016109a2565b5090565b60006109d16109cc84610c08565b610be3565b9050828152602081018484840111156109ed576109ec610e1d565b5b6109f8848285610c9d565b509392505050565b600081359050610a0f81610e3d565b92915050565b600082601f830112610a2a57610a29610e18565b5b8135610a3a8482602086016109be565b91505092915050565b600081359050610a5281610e54565b92915050565b600060208284031215610a6e57610a6d610e27565b5b6000610a7c84828501610a00565b91505092915050565b600060208284031215610a9b57610a9a610e27565b5b600082013567ffffffffffffffff811115610ab957610ab8610e22565b5b610ac584828501610a15565b91505092915050565b600060208284031215610ae457610ae3610e27565b5b6000610af284828501610a43565b91505092915050565b610b0481610c55565b82525050565b610b1381610c67565b82525050565b6000610b2482610c39565b610b2e8185610c44565b9350610b3e818560208601610cac565b610b4781610e2c565b840191505092915050565b610b5b81610c93565b82525050565b6000602082019050610b766000830184610b52565b92915050565b6000604082019050610b916000830185610b52565b610b9e6020830184610afb565b9392505050565b6000606082019050610bba6000830186610b52565b8181036020830152610bcc8185610b19565b9050610bdb6040830184610b0a565b949350505050565b6000610bed610bfe565b9050610bf98282610d11565b919050565b6000604051905090565b600067ffffffffffffffff821115610c2357610c22610de9565b5b610c2c82610e2c565b9050602081019050919050565b600081519050919050565b600082825260208201905092915050565b6000610c6082610c73565b9050919050565b60008115159050919050565b600073ffffffffffffffffffffffffffffffffffffffff82169050919050565b6000819050919050565b82818337600083830152505050565b60005b83811015610cca578082015181840152602081019050610caf565b83811115610cd9576000848401525b50505050565b60006002820490506001821680610cf757607f821691505b60208210811415610d0b57610d0a610dba565b5b50919050565b610d1a82610e2c565b810181811067ffffffffffffffff82111715610d3957610d38610de9565b5b80604052505050565b6000610d4d82610c93565b91507fffffffffffffffffffffffffffffffffffffffffffffffffffffffffffffffff821415610d8057610d7f610d8b565b5b600182019050919050565b7f4e487b7100000000000000000000000000000000000000000000000000000000600052601160045260246000fd5b7f4e487b7100000000000000000000000000000000000000000000000000000000600052602260045260246000fd5b7f4e487b7100000000000000000000000000000000000000000000000000000000600052604160045260246000fd5b600080fd5b600080fd5b600080fd5b600080fd5b6000601f19601f8301169050919050565b610e4681610c55565b8114610e5157600080fd5b50565b610e5d81610c93565b8114610e6857600080fd5b5056fea2646970667358221220a4ab0c96d18004080f8c991c15e91bf2672f4d3539e91cd41acf16aa560c4d9464736f6c63430008050033",
  "immutableReferences": {},
  "source": "// SPDX-License-Identifier: MIT\r\npragma solidity 0.8.5;\r\n\r\n\r\ncontract TodoList {\r\n\r\n    // state variables written to blockchain\r\n    uint public taskCount = 0;\r\n    uint public userCount = 0;\r\n\r\n    // Task Data Type\r\n    struct Task {\r\n        uint id;\r\n        string content;\r\n        bool completed;\r\n    }\r\n\r\n    // // Data type for storing the users task\r\n    struct User {\r\n        uint id;\r\n        address userAddress; // this will act as a foreign key \r\n        uint[] taskIds;\r\n    }\r\n\r\n    // keep mapping of users\r\n    mapping(address => User) public users;\r\n    mapping(uint => Task) public tasks;\r\n    \r\n\r\n\r\n    // this is an ethereum event for clients\r\n    event TaskEvent(\r\n        uint id,\r\n        string content,\r\n        bool completed\r\n    );\r\n\r\n\r\n    // creates a task\r\n    function createTask(string memory _content) public {\r\n\r\n        taskCount ++;\r\n        // adding to the mapping\r\n        tasks[taskCount] = Task(taskCount, _content, false); \r\n\r\n        // if in the users mapping the address is equal to the sender\r\n        // this basically means the user has posted a before\r\n        if (users[msg.sender].userAddress == msg.sender){\r\n            users[msg.sender].taskIds.push(taskCount);\r\n        } else {\r\n            userCount ++;\r\n            User memory user;\r\n            user.id = userCount;\r\n            user.userAddress = msg.sender;\r\n            users[msg.sender].taskIds.push(taskCount);\r\n            tasks[taskCount] = Task(taskCount, _content, false);\r\n            \r\n        }\r\n        \r\n\r\n        emit TaskEvent(taskCount, _content, false);\r\n\r\n    }\r\n\r\n    function removeTask(uint _id) public {\r\n\r\n        Task memory _task = tasks[_id];\r\n\r\n        delete(tasks[_id]);\r\n\r\n        emit TaskEvent(_id, _task.content, _task.completed);\r\n    }\r\n\r\n\r\n    // toggles completion of the task\r\n    function toggleCompleted(uint _id) public {\r\n\r\n        Task memory _task = tasks[_id];\r\n        // toggle by turning it to the opposite\r\n        _task.completed = !_task.completed;\r\n        tasks[_id] = _task;\r\n\r\n        emit TaskEvent(_id, _task.content, _task.completed);\r\n    }\r\n \r\n    constructor() {\r\n\r\n        // Create a base task on creation of the contract\r\n        createTask(\"Check out Zachcook.io\");\r\n    }\r\n\r\n}",
  "sourcePath": "C:/Users/Crypto Thoughts/Desktop/dev/crypto/ToDoDapp/smartcontracts/contracts/TodoList.sol",
  "compiler": {
    "name": "solc",
    "version": "0.8.5+commit.a4f2e591.Emscripten.clang"
  },
  "schemaVersion": "3.4.1",
  "updatedAt": "2021-06-16T18:44:20.892Z",
  "devdoc": {
    "kind": "dev",
    "methods": {},
    "version": 1
  },
  "userdoc": {
    "kind": "user",
    "methods": {},
    "version": 1
  }
}