{
  "contractName": "TodoList",
  "abi": [
    {
      "inputs": [],
      "stateMutability": "nonpayable",
      "type": "constructor"
    },
    {
      "anonymous": false,
      "inputs": [
        {
          "indexed": false,
          "internalType": "uint256",
          "name": "id",
          "type": "uint256"
        },
        {
          "indexed": false,
          "internalType": "string",
          "name": "content",
          "type": "string"
        },
        {
          "indexed": false,
          "internalType": "bool",
          "name": "completed",
          "type": "bool"
        }
      ],
      "name": "TaskCreated",
      "type": "event"
    },
    {
      "inputs": [],
      "name": "taskCount",
      "outputs": [
        {
          "internalType": "uint256",
          "name": "",
          "type": "uint256"
        }
      ],
      "stateMutability": "view",
      "type": "function",
      "constant": true
    },
    {
      "inputs": [
        {
          "internalType": "uint256",
          "name": "",
          "type": "uint256"
        }
      ],
      "name": "tasks",
      "outputs": [
        {
          "internalType": "uint256",
          "name": "id",
          "type": "uint256"
        },
        {
          "internalType": "string",
          "name": "content",
          "type": "string"
        },
        {
          "internalType": "bool",
          "name": "completed",
          "type": "bool"
        },
        {
          "internalType": "address",
          "name": "user",
          "type": "address"
        }
      ],
      "stateMutability": "view",
      "type": "function",
      "constant": true
    },
    {
      "inputs": [
        {
          "internalType": "uint256",
          "name": "",
          "type": "uint256"
        }
      ],
      "name": "tasksArray",
      "outputs": [
        {
          "internalType": "uint256",
          "name": "id",
          "type": "uint256"
        },
        {
          "internalType": "string",
          "name": "content",
          "type": "string"
        },
        {
          "internalType": "bool",
          "name": "completed",
          "type": "bool"
        },
        {
          "internalType": "address",
          "name": "user",
          "type": "address"
        }
      ],
      "stateMutability": "view",
      "type": "function",
      "constant": true
    },
    {
      "inputs": [
        {
          "internalType": "string",
          "name": "_content",
          "type": "string"
        }
      ],
      "name": "createTask",
      "outputs": [],
      "stateMutability": "nonpayable",
      "type": "function"
    },
    {
      "inputs": [],
      "name": "getTasksArray",
      "outputs": [
        {
          "components": [
            {
              "internalType": "uint256",
              "name": "id",
              "type": "uint256"
            },
            {
              "internalType": "string",
              "name": "content",
              "type": "string"
            },
            {
              "internalType": "bool",
              "name": "completed",
              "type": "bool"
            },
            {
              "internalType": "address",
              "name": "user",
              "type": "address"
            }
          ],
          "internalType": "struct TodoList.Task[]",
          "name": "",
          "type": "tuple[]"
        }
      ],
      "stateMutability": "view",
      "type": "function",
      "constant": true
    }
  ],
  "bytecode": "0x6080604052600080553480156200001557600080fd5b506200005c6040518060400160405280601581526020017f436865636b206f7574205a616368636f6f6b2e696f00000000000000000000008152506200006260201b60201c565b6200054c565b60008081548092919062000076906200048f565b9190505550604051806080016040528060005481526020018281526020016000151581526020013373ffffffffffffffffffffffffffffffffffffffff168152506001600080548152602001908152602001600020600082015181600001556020820151816001019080519060200190620000f39291906200029a565b5060408201518160020160006101000a81548160ff02191690831515021790555060608201518160020160016101000a81548173ffffffffffffffffffffffffffffffffffffffff021916908373ffffffffffffffffffffffffffffffffffffffff1602179055509050506002604051806080016040528060005481526020018381526020016000151581526020013373ffffffffffffffffffffffffffffffffffffffff168152509080600181540180825580915050600190039060005260206000209060030201600090919091909150600082015181600001556020820151816001019080519060200190620001ed9291906200029a565b5060408201518160020160006101000a81548160ff02191690831515021790555060608201518160020160016101000a81548173ffffffffffffffffffffffffffffffffffffffff021916908373ffffffffffffffffffffffffffffffffffffffff16021790555050507f05d0fb833127fc08168556d0e7ca9554fc3f6bc843b3b7d2bf1c35aea6bab6606000548260006040516200028f93929190620003ad565b60405180910390a150565b828054620002a89062000459565b90600052602060002090601f016020900481019282620002cc576000855562000318565b82601f10620002e757805160ff191683800117855562000318565b8280016001018555821562000318579182015b8281111562000317578251825591602001919060010190620002fa565b5b5090506200032791906200032b565b5090565b5b80821115620003465760008160009055506001016200032c565b5090565b62000355816200040d565b82525050565b60006200036882620003f1565b620003748185620003fc565b93506200038681856020860162000423565b62000391816200053b565b840191505092915050565b620003a78162000419565b82525050565b6000606082019050620003c460008301866200039c565b8181036020830152620003d881856200035b565b9050620003e960408301846200034a565b949350505050565b600081519050919050565b600082825260208201905092915050565b60008115159050919050565b6000819050919050565b60005b838110156200044357808201518184015260208101905062000426565b8381111562000453576000848401525b50505050565b600060028204905060018216806200047257607f821691505b602082108114156200048957620004886200050c565b5b50919050565b60006200049c8262000419565b91507fffffffffffffffffffffffffffffffffffffffffffffffffffffffffffffffff821415620004d257620004d1620004dd565b5b600182019050919050565b7f4e487b7100000000000000000000000000000000000000000000000000000000600052601160045260246000fd5b7f4e487b7100000000000000000000000000000000000000000000000000000000600052602260045260246000fd5b6000601f19601f8301169050919050565b610d7c806200055c6000396000f3fe608060405234801561001057600080fd5b50600436106100575760003560e01c8063111002aa1461005c57806333251a3a146100785780638d977672146100ab5780638dad5b53146100de578063b6cb58a5146100fc575b600080fd5b610076600480360381019061007191906107b6565b61011a565b005b610092600480360381019061008d91906107f7565b61034a565b6040516100a29493929190610a53565b60405180910390f35b6100c560048036038101906100c091906107f7565b61043f565b6040516100d59493929190610a53565b60405180910390f35b6100e6610524565b6040516100f391906109d8565b60405180910390f35b610104610690565b60405161011191906109fa565b60405180910390f35b60008081548092919061012c90610c48565b9190505550604051806080016040528060005481526020018281526020016000151581526020013373ffffffffffffffffffffffffffffffffffffffff1681525060016000805481526020019081526020016000206000820151816000015560208201518160010190805190602001906101a7929190610696565b5060408201518160020160006101000a81548160ff02191690831515021790555060608201518160020160016101000a81548173ffffffffffffffffffffffffffffffffffffffff021916908373ffffffffffffffffffffffffffffffffffffffff1602179055509050506002604051806080016040528060005481526020018381526020016000151581526020013373ffffffffffffffffffffffffffffffffffffffff16815250908060018154018082558091505060019003906000526020600020906003020160009091909190915060008201518160000155602082015181600101908051906020019061029f929190610696565b5060408201518160020160006101000a81548160ff02191690831515021790555060608201518160020160016101000a81548173ffffffffffffffffffffffffffffffffffffffff021916908373ffffffffffffffffffffffffffffffffffffffff16021790555050507f05d0fb833127fc08168556d0e7ca9554fc3f6bc843b3b7d2bf1c35aea6bab66060005482600060405161033f93929190610a15565b60405180910390a150565b6002818154811061035a57600080fd5b906000526020600020906003020160009150905080600001549080600101805461038390610be5565b80601f01602080910402602001604051908101604052809291908181526020018280546103af90610be5565b80156103fc5780601f106103d1576101008083540402835291602001916103fc565b820191906000526020600020905b8154815290600101906020018083116103df57829003601f168201915b5050505050908060020160009054906101000a900460ff16908060020160019054906101000a900473ffffffffffffffffffffffffffffffffffffffff16905084565b600160205280600052604060002060009150905080600001549080600101805461046890610be5565b80601f016020809104026020016040519081016040528092919081815260200182805461049490610be5565b80156104e15780601f106104b6576101008083540402835291602001916104e1565b820191906000526020600020905b8154815290600101906020018083116104c457829003601f168201915b5050505050908060020160009054906101000a900460ff16908060020160019054906101000a900473ffffffffffffffffffffffffffffffffffffffff16905084565b60606002805480602002602001604051908101604052809291908181526020016000905b8282101561068757838290600052602060002090600302016040518060800160405290816000820154815260200160018201805461058590610be5565b80601f01602080910402602001604051908101604052809291908181526020018280546105b190610be5565b80156105fe5780601f106105d3576101008083540402835291602001916105fe565b820191906000526020600020905b8154815290600101906020018083116105e157829003601f168201915b505050505081526020016002820160009054906101000a900460ff161515151581526020016002820160019054906101000a900473ffffffffffffffffffffffffffffffffffffffff1673ffffffffffffffffffffffffffffffffffffffff1673ffffffffffffffffffffffffffffffffffffffff168152505081526020019060010190610548565b50505050905090565b60005481565b8280546106a290610be5565b90600052602060002090601f0160209004810192826106c4576000855561070b565b82601f106106dd57805160ff191683800117855561070b565b8280016001018555821561070b579182015b8281111561070a5782518255916020019190600101906106ef565b5b509050610718919061071c565b5090565b5b8082111561073557600081600090555060010161071d565b5090565b600061074c61074784610ac4565b610a9f565b90508281526020810184848401111561076457600080fd5b61076f848285610ba3565b509392505050565b600082601f83011261078857600080fd5b8135610798848260208601610739565b91505092915050565b6000813590506107b081610d2f565b92915050565b6000602082840312156107c857600080fd5b600082013567ffffffffffffffff8111156107e257600080fd5b6107ee84828501610777565b91505092915050565b60006020828403121561080957600080fd5b6000610817848285016107a1565b91505092915050565b600061082c8383610957565b905092915050565b61083d81610b5b565b82525050565b61084c81610b5b565b82525050565b600061085d82610b05565b6108678185610b28565b93508360208202850161087985610af5565b8060005b858110156108b557848403895281516108968582610820565b94506108a183610b1b565b925060208a0199505060018101905061087d565b50829750879550505050505092915050565b6108d081610b6d565b82525050565b6108df81610b6d565b82525050565b60006108f082610b10565b6108fa8185610b39565b935061090a818560208601610bb2565b61091381610d1e565b840191505092915050565b600061092982610b10565b6109338185610b4a565b9350610943818560208601610bb2565b61094c81610d1e565b840191505092915050565b600060808301600083015161096f60008601826109ba565b506020830151848203602086015261098782826108e5565b915050604083015161099c60408601826108c7565b5060608301516109af6060860182610834565b508091505092915050565b6109c381610b99565b82525050565b6109d281610b99565b82525050565b600060208201905081810360008301526109f28184610852565b905092915050565b6000602082019050610a0f60008301846109c9565b92915050565b6000606082019050610a2a60008301866109c9565b8181036020830152610a3c818561091e565b9050610a4b60408301846108d6565b949350505050565b6000608082019050610a6860008301876109c9565b8181036020830152610a7a818661091e565b9050610a8960408301856108d6565b610a966060830184610843565b95945050505050565b6000610aa9610aba565b9050610ab58282610c17565b919050565b6000604051905090565b600067ffffffffffffffff821115610adf57610ade610cef565b5b610ae882610d1e565b9050602081019050919050565b6000819050602082019050919050565b600081519050919050565b600081519050919050565b6000602082019050919050565b600082825260208201905092915050565b600082825260208201905092915050565b600082825260208201905092915050565b6000610b6682610b79565b9050919050565b60008115159050919050565b600073ffffffffffffffffffffffffffffffffffffffff82169050919050565b6000819050919050565b82818337600083830152505050565b60005b83811015610bd0578082015181840152602081019050610bb5565b83811115610bdf576000848401525b50505050565b60006002820490506001821680610bfd57607f821691505b60208210811415610c1157610c10610cc0565b5b50919050565b610c2082610d1e565b810181811067ffffffffffffffff82111715610c3f57610c3e610cef565b5b80604052505050565b6000610c5382610b99565b91507fffffffffffffffffffffffffffffffffffffffffffffffffffffffffffffffff821415610c8657610c85610c91565b5b600182019050919050565b7f4e487b7100000000000000000000000000000000000000000000000000000000600052601160045260246000fd5b7f4e487b7100000000000000000000000000000000000000000000000000000000600052602260045260246000fd5b7f4e487b7100000000000000000000000000000000000000000000000000000000600052604160045260246000fd5b6000601f19601f8301169050919050565b610d3881610b99565b8114610d4357600080fd5b5056fea26469706673582212202153631e68a30197cc1b275378a89871aa218f188ae9d78dda7e5ffc34efe49064736f6c63430008040033",
  "immutableReferences": {},
  "source": "// SPDX-License-Identifier: MIT\r\npragma solidity 0.8.4;\r\n\r\n\r\ncontract TodoList {\r\n\r\n    // state variables written to blockchain\r\n    uint public taskCount = 0;\r\n\r\n\r\n    // Task Data Type\r\n    struct Task {\r\n        uint id;\r\n        string content;\r\n        bool completed;\r\n        address user;\r\n    }\r\n\r\n    // data structures for holding the tasks\r\n    // using mapping\r\n    mapping(uint => Task) public tasks;\r\n    // using array\r\n    Task[] public tasksArray; \r\n\r\n    // this is an ethereum event for clients\r\n    event TaskCreated(\r\n        uint id,\r\n        string content,\r\n        bool completed\r\n    );\r\n\r\n\r\n\r\n    // creates a task\r\n    function createTask(string memory _content) public {\r\n\r\n        taskCount ++;\r\n        // adding to the mapping\r\n        tasks[taskCount] = Task(taskCount, _content, false, msg.sender); \r\n        // adding to the array\r\n        tasksArray.push(Task(taskCount, _content, false, msg.sender));\r\n\r\n        emit TaskCreated(taskCount, _content, false);\r\n\r\n    }\r\n\r\n    // function toggleCompleted(uint id) public {\r\n\r\n    //     Task memory _task = tasks[_id];\r\n    //     // toggle by turning it to the opposite\r\n    //     _task.completed = !_task.completed;\r\n    //     tasks[_id] = _task;\r\n    // }\r\n\r\n    // returns an array of all of the tasks\r\n    function getTasksArray() public view returns(Task[] memory){\r\n        return tasksArray;\r\n    }\r\n\r\n    \r\n    constructor() {\r\n\r\n        // Create a base task on creation of the contract\r\n        createTask(\"Check out Zachcook.io\");\r\n    }\r\n\r\n}",
  "sourcePath": "C:/Users/Crypto Thoughts/Desktop/dev/crypto/ToDoDapp/smartcontracts/contracts/TodoList.sol",
  "compiler": {
    "name": "solc",
    "version": "0.8.4+commit.c7e474f2.Emscripten.clang"
  },
  "schemaVersion": "3.4.1",
  "updatedAt": "2021-06-12T22:20:33.011Z",
  "networkType": "ethereum",
  "devdoc": {
    "kind": "dev",
    "methods": {},
    "version": 1
  },
  "userdoc": {
    "kind": "user",
    "methods": {},
    "version": 1
  }
}