{
  "contractName": "TodoList",
  "abi": [
    {
      "inputs": [],
      "stateMutability": "nonpayable",
      "type": "constructor"
    },
    {
      "anonymous": false,
      "inputs": [
        {
          "indexed": false,
          "internalType": "uint256",
          "name": "id",
          "type": "uint256"
        },
        {
          "indexed": false,
          "internalType": "uint256",
          "name": "date",
          "type": "uint256"
        },
        {
          "indexed": false,
          "internalType": "string",
          "name": "content",
          "type": "string"
        },
        {
          "indexed": false,
          "internalType": "bool",
          "name": "completed",
          "type": "bool"
        }
      ],
      "name": "TaskEvent",
      "type": "event"
    },
    {
      "inputs": [],
      "name": "taskCount",
      "outputs": [
        {
          "internalType": "uint256",
          "name": "",
          "type": "uint256"
        }
      ],
      "stateMutability": "view",
      "type": "function",
      "constant": true
    },
    {
      "inputs": [
        {
          "internalType": "uint256",
          "name": "",
          "type": "uint256"
        }
      ],
      "name": "tasks",
      "outputs": [
        {
          "internalType": "uint256",
          "name": "id",
          "type": "uint256"
        },
        {
          "internalType": "uint256",
          "name": "date",
          "type": "uint256"
        },
        {
          "internalType": "string",
          "name": "content",
          "type": "string"
        },
        {
          "internalType": "bool",
          "name": "completed",
          "type": "bool"
        }
      ],
      "stateMutability": "view",
      "type": "function",
      "constant": true
    },
    {
      "inputs": [],
      "name": "userCount",
      "outputs": [
        {
          "internalType": "uint256",
          "name": "",
          "type": "uint256"
        }
      ],
      "stateMutability": "view",
      "type": "function",
      "constant": true
    },
    {
      "inputs": [
        {
          "internalType": "address",
          "name": "",
          "type": "address"
        }
      ],
      "name": "users",
      "outputs": [
        {
          "internalType": "uint256",
          "name": "id",
          "type": "uint256"
        },
        {
          "internalType": "address",
          "name": "userAddress",
          "type": "address"
        },
        {
          "internalType": "bool",
          "name": "exists",
          "type": "bool"
        }
      ],
      "stateMutability": "view",
      "type": "function",
      "constant": true
    },
    {
      "inputs": [
        {
          "internalType": "uint256",
          "name": "_date",
          "type": "uint256"
        },
        {
          "internalType": "string",
          "name": "_content",
          "type": "string"
        }
      ],
      "name": "createTask",
      "outputs": [],
      "stateMutability": "nonpayable",
      "type": "function"
    },
    {
      "inputs": [
        {
          "internalType": "uint256",
          "name": "_id",
          "type": "uint256"
        }
      ],
      "name": "removeTask",
      "outputs": [],
      "stateMutability": "nonpayable",
      "type": "function"
    },
    {
      "inputs": [
        {
          "internalType": "uint256",
          "name": "_id",
          "type": "uint256"
        }
      ],
      "name": "toggleCompleted",
      "outputs": [],
      "stateMutability": "nonpayable",
      "type": "function"
    },
    {
      "inputs": [],
      "name": "getUserTasks",
      "outputs": [
        {
          "internalType": "uint256[]",
          "name": "",
          "type": "uint256[]"
        }
      ],
      "stateMutability": "view",
      "type": "function",
      "constant": true
    }
  ],
  "bytecode": "0x60806040526000805560006001553480156200001a57600080fd5b506200006663616561da6040518060400160405280601581526020017f436865636b206f7574205a616368636f6f6b2e696f00000000000000000000008152506200006c60201b60201c565b620006d4565b600080815480929190620000809062000617565b91905055506040518060800160405280600054815260200183815260200182815260200160001515815250600260008054815260200190815260200160002060008201518160000155602082015181600101556040820151816002019080519060200190620000f1929190620003c0565b5060608201518160030160006101000a81548160ff02191690831515021790555090505060011515600360003373ffffffffffffffffffffffffffffffffffffffff1673ffffffffffffffffffffffffffffffffffffffff16815260200190815260200160002060010160149054906101000a900460ff1615151415620001e357600360003373ffffffffffffffffffffffffffffffffffffffff1673ffffffffffffffffffffffffffffffffffffffff16815260200190815260200160002060020160005490806001815401808255809150506001900390600052602060002001600090919091909150556200037a565b60016000815480929190620001f89062000617565b91905055506060604051806080016040528060005481526020013373ffffffffffffffffffffffffffffffffffffffff16815260200160011515815260200182815250600360003373ffffffffffffffffffffffffffffffffffffffff1673ffffffffffffffffffffffffffffffffffffffff1681526020019081526020016000206000820151816000015560208201518160010160006101000a81548173ffffffffffffffffffffffffffffffffffffffff021916908373ffffffffffffffffffffffffffffffffffffffff16021790555060408201518160010160146101000a81548160ff02191690831515021790555060608201518160020190805190602001906200030992919062000451565b50905050600360003373ffffffffffffffffffffffffffffffffffffffff1673ffffffffffffffffffffffffffffffffffffffff1681526020019081526020016000206002016000549080600181540180825580915050600190039060005260206000200160009091909190915055505b7f2b4384e07391c61cb9bb494cbcd84725afc15a3aa9609e0c1d943d2cee3e4f9a60005483836000604051620003b4949392919062000525565b60405180910390a15050565b828054620003ce90620005e1565b90600052602060002090601f016020900481019282620003f257600085556200043e565b82601f106200040d57805160ff19168380011785556200043e565b828001600101855582156200043e579182015b828111156200043d57825182559160200191906001019062000420565b5b5090506200044d9190620004a3565b5090565b82805482825590600052602060002090810192821562000490579160200282015b828111156200048f57825182559160200191906001019062000472565b5b5090506200049f9190620004a3565b5090565b5b80821115620004be576000816000905550600101620004a4565b5090565b620004cd8162000595565b82525050565b6000620004e08262000579565b620004ec818562000584565b9350620004fe818560208601620005ab565b6200050981620006c3565b840191505092915050565b6200051f81620005a1565b82525050565b60006080820190506200053c600083018762000514565b6200054b602083018662000514565b81810360408301526200055f8185620004d3565b9050620005706060830184620004c2565b95945050505050565b600081519050919050565b600082825260208201905092915050565b60008115159050919050565b6000819050919050565b60005b83811015620005cb578082015181840152602081019050620005ae565b83811115620005db576000848401525b50505050565b60006002820490506001821680620005fa57607f821691505b6020821081141562000611576200061062000694565b5b50919050565b60006200062482620005a1565b91507fffffffffffffffffffffffffffffffffffffffffffffffffffffffffffffffff8214156200065a576200065962000665565b5b600182019050919050565b7f4e487b7100000000000000000000000000000000000000000000000000000000600052601160045260246000fd5b7f4e487b7100000000000000000000000000000000000000000000000000000000600052602260045260246000fd5b6000601f19601f8301169050919050565b61118780620006e46000396000f3fe608060405234801561001057600080fd5b50600436106100885760003560e01c80638d9776721161005b5780638d97767214610101578063a87430ba14610134578063b6cb58a514610166578063c30841171461018457610088565b806307973ccf1461008d57806316d41b94146100ab57806334112f5f146100c7578063455f5024146100e5575b600080fd5b6100956101a0565b6040516100a29190610df2565b60405180910390f35b6100c560048036038101906100c09190610c89565b6101a6565b005b6100cf6104ee565b6040516100dc9190610dd0565b60405180910390f35b6100ff60048036038101906100fa9190610c5c565b61061c565b005b61011b60048036038101906101169190610c5c565b6107c9565b60405161012b9493929190610e44565b60405180910390f35b61014e60048036038101906101499190610c2f565b61088e565b60405161015d93929190610e0d565b60405180910390f35b61016e6108e5565b60405161017b9190610df2565b60405180910390f35b61019e60048036038101906101999190610c5c565b6108eb565b005b60015481565b6000808154809291906101b890611028565b91905055506040518060800160405280600054815260200183815260200182815260200160001515815250600260008054815260200190815260200160002060008201518160000155602082015181600101556040820151816002019080519060200190610227929190610a65565b5060608201518160030160006101000a81548160ff02191690831515021790555090505060011515600360003373ffffffffffffffffffffffffffffffffffffffff1673ffffffffffffffffffffffffffffffffffffffff16815260200190815260200160002060010160149054906101000a900460ff161515141561031757600360003373ffffffffffffffffffffffffffffffffffffffff1673ffffffffffffffffffffffffffffffffffffffff16815260200190815260200160002060020160005490806001815401808255809150506001900390600052602060002001600090919091909150556104aa565b6001600081548092919061032a90611028565b91905055506060604051806080016040528060005481526020013373ffffffffffffffffffffffffffffffffffffffff16815260200160011515815260200182815250600360003373ffffffffffffffffffffffffffffffffffffffff1673ffffffffffffffffffffffffffffffffffffffff1681526020019081526020016000206000820151816000015560208201518160010160006101000a81548173ffffffffffffffffffffffffffffffffffffffff021916908373ffffffffffffffffffffffffffffffffffffffff16021790555060408201518160010160146101000a81548160ff0219169083151502179055506060820151816002019080519060200190610439929190610aeb565b50905050600360003373ffffffffffffffffffffffffffffffffffffffff1673ffffffffffffffffffffffffffffffffffffffff1681526020019081526020016000206002016000549080600181540180825580915050600190039060005260206000200160009091909190915055505b7f2b4384e07391c61cb9bb494cbcd84725afc15a3aa9609e0c1d943d2cee3e4f9a600054838360006040516104e29493929190610e44565b60405180910390a15050565b60606000600360003373ffffffffffffffffffffffffffffffffffffffff1673ffffffffffffffffffffffffffffffffffffffff168152602001908152602001600020604051806080016040529081600082015481526020016001820160009054906101000a900473ffffffffffffffffffffffffffffffffffffffff1673ffffffffffffffffffffffffffffffffffffffff1673ffffffffffffffffffffffffffffffffffffffff1681526020016001820160149054906101000a900460ff161515151581526020016002820180548060200260200160405190810160405280929190818152602001828054801561060657602002820191906000526020600020905b8154815260200190600101908083116105f2575b5050505050815250509050806060015191505090565b600060026000838152602001908152602001600020604051806080016040529081600082015481526020016001820154815260200160028201805461066090610fc5565b80601f016020809104026020016040519081016040528092919081815260200182805461068c90610fc5565b80156106d95780601f106106ae576101008083540402835291602001916106d9565b820191906000526020600020905b8154815290600101906020018083116106bc57829003601f168201915b505050505081526020016003820160009054906101000a900460ff1615151515815250509050806060015115816060019015159081151581525050806002600084815260200190815260200160002060008201518160000155602082015181600101556040820151816002019080519060200190610758929190610a65565b5060608201518160030160006101000a81548160ff0219169083151502179055509050507f2b4384e07391c61cb9bb494cbcd84725afc15a3aa9609e0c1d943d2cee3e4f9a828260200151836040015184606001516040516107bd9493929190610e44565b60405180910390a15050565b60026020528060005260406000206000915090508060000154908060010154908060020180546107f890610fc5565b80601f016020809104026020016040519081016040528092919081815260200182805461082490610fc5565b80156108715780601f1061084657610100808354040283529160200191610871565b820191906000526020600020905b81548152906001019060200180831161085457829003601f168201915b5050505050908060030160009054906101000a900460ff16905084565b60036020528060005260406000206000915090508060000154908060010160009054906101000a900473ffffffffffffffffffffffffffffffffffffffff16908060010160149054906101000a900460ff16905083565b60005481565b600060026000838152602001908152602001600020604051806080016040529081600082015481526020016001820154815260200160028201805461092f90610fc5565b80601f016020809104026020016040519081016040528092919081815260200182805461095b90610fc5565b80156109a85780601f1061097d576101008083540402835291602001916109a8565b820191906000526020600020905b81548152906001019060200180831161098b57829003601f168201915b505050505081526020016003820160009054906101000a900460ff1615151515815250509050600260008381526020019081526020016000206000808201600090556001820160009055600282016000610a029190610b38565b6003820160006101000a81549060ff021916905550507f2b4384e07391c61cb9bb494cbcd84725afc15a3aa9609e0c1d943d2cee3e4f9a82826020015183604001518460600151604051610a599493929190610e44565b60405180910390a15050565b828054610a7190610fc5565b90600052602060002090601f016020900481019282610a935760008555610ada565b82601f10610aac57805160ff1916838001178555610ada565b82800160010185558215610ada579182015b82811115610ad9578251825591602001919060010190610abe565b5b509050610ae79190610b78565b5090565b828054828255906000526020600020908101928215610b27579160200282015b82811115610b26578251825591602001919060010190610b0b565b5b509050610b349190610b78565b5090565b508054610b4490610fc5565b6000825580601f10610b565750610b75565b601f016020900490600052602060002090810190610b749190610b78565b5b50565b5b80821115610b91576000816000905550600101610b79565b5090565b6000610ba8610ba384610eb5565b610e90565b905082815260208101848484011115610bc457610bc3611103565b5b610bcf848285610f83565b509392505050565b600081359050610be681611123565b92915050565b600082601f830112610c0157610c006110fe565b5b8135610c11848260208601610b95565b91505092915050565b600081359050610c298161113a565b92915050565b600060208284031215610c4557610c4461110d565b5b6000610c5384828501610bd7565b91505092915050565b600060208284031215610c7257610c7161110d565b5b6000610c8084828501610c1a565b91505092915050565b60008060408385031215610ca057610c9f61110d565b5b6000610cae85828601610c1a565b925050602083013567ffffffffffffffff811115610ccf57610cce611108565b5b610cdb85828601610bec565b9150509250929050565b6000610cf18383610db2565b60208301905092915050565b610d0681610f3b565b82525050565b6000610d1782610ef6565b610d218185610f19565b9350610d2c83610ee6565b8060005b83811015610d5d578151610d448882610ce5565b9750610d4f83610f0c565b925050600181019050610d30565b5085935050505092915050565b610d7381610f4d565b82525050565b6000610d8482610f01565b610d8e8185610f2a565b9350610d9e818560208601610f92565b610da781611112565b840191505092915050565b610dbb81610f79565b82525050565b610dca81610f79565b82525050565b60006020820190508181036000830152610dea8184610d0c565b905092915050565b6000602082019050610e076000830184610dc1565b92915050565b6000606082019050610e226000830186610dc1565b610e2f6020830185610cfd565b610e3c6040830184610d6a565b949350505050565b6000608082019050610e596000830187610dc1565b610e666020830186610dc1565b8181036040830152610e788185610d79565b9050610e876060830184610d6a565b95945050505050565b6000610e9a610eab565b9050610ea68282610ff7565b919050565b6000604051905090565b600067ffffffffffffffff821115610ed057610ecf6110cf565b5b610ed982611112565b9050602081019050919050565b6000819050602082019050919050565b600081519050919050565b600081519050919050565b6000602082019050919050565b600082825260208201905092915050565b600082825260208201905092915050565b6000610f4682610f59565b9050919050565b60008115159050919050565b600073ffffffffffffffffffffffffffffffffffffffff82169050919050565b6000819050919050565b82818337600083830152505050565b60005b83811015610fb0578082015181840152602081019050610f95565b83811115610fbf576000848401525b50505050565b60006002820490506001821680610fdd57607f821691505b60208210811415610ff157610ff06110a0565b5b50919050565b61100082611112565b810181811067ffffffffffffffff8211171561101f5761101e6110cf565b5b80604052505050565b600061103382610f79565b91507fffffffffffffffffffffffffffffffffffffffffffffffffffffffffffffffff82141561106657611065611071565b5b600182019050919050565b7f4e487b7100000000000000000000000000000000000000000000000000000000600052601160045260246000fd5b7f4e487b7100000000000000000000000000000000000000000000000000000000600052602260045260246000fd5b7f4e487b7100000000000000000000000000000000000000000000000000000000600052604160045260246000fd5b600080fd5b600080fd5b600080fd5b600080fd5b6000601f19601f8301169050919050565b61112c81610f3b565b811461113757600080fd5b50565b61114381610f79565b811461114e57600080fd5b5056fea26469706673582212204865e0fbd2c52f4e3e4e979746b421a5e816945dd37546a15760f267e242b32864736f6c63430008050033",
  "immutableReferences": {},
  "source": "// SPDX-License-Identifier: MIT\r\npragma solidity 0.8.5;\r\n\r\n\r\ncontract TodoList {\r\n\r\n    // state variables written to blockchain\r\n    uint public taskCount = 0;\r\n    uint public userCount = 0;\r\n\r\n    // Task Data Type\r\n    struct Task {\r\n        uint id;\r\n        uint date;\r\n        string content;\r\n        bool completed;\r\n    }\r\n    mapping(uint => Task) public tasks;\r\n    // this is an ethereum event for clients\r\n    event TaskEvent(\r\n        uint id,\r\n        uint date,\r\n        string content,\r\n        bool completed\r\n    );\r\n\r\n    // // Data type for storing the users task\r\n    struct User {\r\n        uint id;\r\n        address userAddress; // this will act as a foreign key \r\n        bool exists;\r\n        uint[] taskIds;\r\n    }\r\n\r\n    mapping(address => User) public users;\r\n\r\n    // creates a task\r\n    function createTask( uint _date, string memory _content) public {\r\n\r\n        // increment the taskCount which is used as the id for each task\r\n        taskCount ++;\r\n\r\n        // add the task to the tasks\r\n        tasks[taskCount] = Task(taskCount, _date, _content, false); \r\n\r\n        // if in the users mapping the address is equal to the sender\r\n        // this basically means the user has posted a task before\r\n        if (users[msg.sender].exists == true){ \r\n            users[msg.sender].taskIds.push(taskCount);\r\n        } else {\r\n            userCount ++;\r\n            uint [] memory taskIDArray;\r\n            users[msg.sender] = User(taskCount, msg.sender, true, taskIDArray);\r\n            users[msg.sender].taskIds.push(taskCount);\r\n        }\r\n        \r\n        emit TaskEvent(taskCount, _date, _content, false);\r\n\r\n    }\r\n\r\n    function removeTask(uint _id) public {\r\n\r\n        Task memory _task = tasks[_id];\r\n\r\n        delete(tasks[_id]);\r\n\r\n        emit TaskEvent(_id, _task.date, _task.content, _task.completed);\r\n    }\r\n\r\n\r\n    // toggles completion of the task\r\n    function toggleCompleted(uint _id) public {\r\n\r\n        Task memory _task = tasks[_id];\r\n        // toggle by turning it to the opposite\r\n        _task.completed = !_task.completed;\r\n        tasks[_id] = _task;\r\n\r\n        emit TaskEvent(_id, _task.date, _task.content, _task.completed);\r\n    }\r\n\r\n    // this will get all of the ids the user has posted\r\n    // it acts as a kind of filter to prevent to much load on the client side\r\n    function getUserTasks() public view returns(uint [] memory) {\r\n        User memory user = users[msg.sender];\r\n        return user.taskIds;\r\n    }\r\n \r\n    constructor() {\r\n        // Create a base task on creation of the contract\r\n        createTask(1634034138, \"Check out Zachcook.io\");\r\n    }\r\n\r\n}",
  "sourcePath": "C:/Users/Crypto Thoughts/Desktop/dev/crypto/ToDoDapp/smartcontracts/contracts/TodoList.sol",
  "compiler": {
    "name": "solc",
    "version": "0.8.5+commit.a4f2e591.Emscripten.clang"
  },
  "schemaVersion": "3.4.1",
  "updatedAt": "2021-06-18T18:33:42.755Z",
  "networkType": "ethereum",
  "devdoc": {
    "kind": "dev",
    "methods": {},
    "version": 1
  },
  "userdoc": {
    "kind": "user",
    "methods": {},
    "version": 1
  }
}