{
  "contractName": "TodoList",
  "abi": [
    {
      "inputs": [],
      "stateMutability": "nonpayable",
      "type": "constructor"
    },
    {
      "anonymous": false,
      "inputs": [
        {
          "indexed": false,
          "internalType": "uint256",
          "name": "id",
          "type": "uint256"
        },
        {
          "indexed": false,
          "internalType": "string",
          "name": "content",
          "type": "string"
        },
        {
          "indexed": false,
          "internalType": "bool",
          "name": "completed",
          "type": "bool"
        }
      ],
      "name": "TaskCompleted",
      "type": "event"
    },
    {
      "anonymous": false,
      "inputs": [
        {
          "indexed": false,
          "internalType": "uint256",
          "name": "id",
          "type": "uint256"
        },
        {
          "indexed": false,
          "internalType": "string",
          "name": "content",
          "type": "string"
        },
        {
          "indexed": false,
          "internalType": "bool",
          "name": "completed",
          "type": "bool"
        }
      ],
      "name": "TaskCreated",
      "type": "event"
    },
    {
      "inputs": [],
      "name": "taskCount",
      "outputs": [
        {
          "internalType": "uint256",
          "name": "",
          "type": "uint256"
        }
      ],
      "stateMutability": "view",
      "type": "function",
      "constant": true
    },
    {
      "inputs": [
        {
          "internalType": "uint256",
          "name": "",
          "type": "uint256"
        }
      ],
      "name": "tasks",
      "outputs": [
        {
          "internalType": "uint256",
          "name": "id",
          "type": "uint256"
        },
        {
          "internalType": "string",
          "name": "content",
          "type": "string"
        },
        {
          "internalType": "bool",
          "name": "completed",
          "type": "bool"
        },
        {
          "internalType": "address",
          "name": "user",
          "type": "address"
        }
      ],
      "stateMutability": "view",
      "type": "function",
      "constant": true
    },
    {
      "inputs": [
        {
          "internalType": "uint256",
          "name": "",
          "type": "uint256"
        }
      ],
      "name": "tasksArray",
      "outputs": [
        {
          "internalType": "uint256",
          "name": "id",
          "type": "uint256"
        },
        {
          "internalType": "string",
          "name": "content",
          "type": "string"
        },
        {
          "internalType": "bool",
          "name": "completed",
          "type": "bool"
        },
        {
          "internalType": "address",
          "name": "user",
          "type": "address"
        }
      ],
      "stateMutability": "view",
      "type": "function",
      "constant": true
    },
    {
      "inputs": [
        {
          "internalType": "string",
          "name": "_content",
          "type": "string"
        }
      ],
      "name": "createTask",
      "outputs": [],
      "stateMutability": "nonpayable",
      "type": "function"
    },
    {
      "inputs": [
        {
          "internalType": "uint256",
          "name": "_id",
          "type": "uint256"
        }
      ],
      "name": "removeTask",
      "outputs": [],
      "stateMutability": "nonpayable",
      "type": "function"
    },
    {
      "inputs": [
        {
          "internalType": "uint256",
          "name": "_id",
          "type": "uint256"
        }
      ],
      "name": "toggleCompleted",
      "outputs": [],
      "stateMutability": "nonpayable",
      "type": "function"
    },
    {
      "inputs": [],
      "name": "getTasksArray",
      "outputs": [
        {
          "components": [
            {
              "internalType": "uint256",
              "name": "id",
              "type": "uint256"
            },
            {
              "internalType": "string",
              "name": "content",
              "type": "string"
            },
            {
              "internalType": "bool",
              "name": "completed",
              "type": "bool"
            },
            {
              "internalType": "address",
              "name": "user",
              "type": "address"
            }
          ],
          "internalType": "struct TodoList.Task[]",
          "name": "",
          "type": "tuple[]"
        }
      ],
      "stateMutability": "view",
      "type": "function",
      "constant": true
    }
  ],
  "bytecode": "0x6080604052600080553480156200001557600080fd5b506200005c6040518060400160405280601581526020017f436865636b206f7574205a616368636f6f6b2e696f00000000000000000000008152506200006260201b60201c565b6200054c565b60008081548092919062000076906200048f565b9190505550604051806080016040528060005481526020018281526020016000151581526020013373ffffffffffffffffffffffffffffffffffffffff168152506001600080548152602001908152602001600020600082015181600001556020820151816001019080519060200190620000f39291906200029a565b5060408201518160020160006101000a81548160ff02191690831515021790555060608201518160020160016101000a81548173ffffffffffffffffffffffffffffffffffffffff021916908373ffffffffffffffffffffffffffffffffffffffff1602179055509050506002604051806080016040528060005481526020018381526020016000151581526020013373ffffffffffffffffffffffffffffffffffffffff168152509080600181540180825580915050600190039060005260206000209060030201600090919091909150600082015181600001556020820151816001019080519060200190620001ed9291906200029a565b5060408201518160020160006101000a81548160ff02191690831515021790555060608201518160020160016101000a81548173ffffffffffffffffffffffffffffffffffffffff021916908373ffffffffffffffffffffffffffffffffffffffff16021790555050507f05d0fb833127fc08168556d0e7ca9554fc3f6bc843b3b7d2bf1c35aea6bab6606000548260006040516200028f93929190620003ad565b60405180910390a150565b828054620002a89062000459565b90600052602060002090601f016020900481019282620002cc576000855562000318565b82601f10620002e757805160ff191683800117855562000318565b8280016001018555821562000318579182015b8281111562000317578251825591602001919060010190620002fa565b5b5090506200032791906200032b565b5090565b5b80821115620003465760008160009055506001016200032c565b5090565b62000355816200040d565b82525050565b60006200036882620003f1565b620003748185620003fc565b93506200038681856020860162000423565b62000391816200053b565b840191505092915050565b620003a78162000419565b82525050565b6000606082019050620003c460008301866200039c565b8181036020830152620003d881856200035b565b9050620003e960408301846200034a565b949350505050565b600081519050919050565b600082825260208201905092915050565b60008115159050919050565b6000819050919050565b60005b838110156200044357808201518184015260208101905062000426565b8381111562000453576000848401525b50505050565b600060028204905060018216806200047257607f821691505b602082108114156200048957620004886200050c565b5b50919050565b60006200049c8262000419565b91507fffffffffffffffffffffffffffffffffffffffffffffffffffffffffffffffff821415620004d257620004d1620004dd565b5b600182019050919050565b7f4e487b7100000000000000000000000000000000000000000000000000000000600052601160045260246000fd5b7f4e487b7100000000000000000000000000000000000000000000000000000000600052602260045260246000fd5b6000601f19601f8301169050919050565b6110b6806200055c6000396000f3fe608060405234801561001057600080fd5b506004361061007d5760003560e01c80638d9776721161005b5780638d977672146100ed5780638dad5b5314610120578063b6cb58a51461013e578063c30841171461015c5761007d565b8063111002aa1461008257806333251a3a1461009e578063455f5024146100d1575b600080fd5b61009c60048036038101906100979190610af0565b610178565b005b6100b860048036038101906100b39190610b31565b6103a8565b6040516100c89493929190610d8d565b60405180910390f35b6100eb60048036038101906100e69190610b31565b61049d565b005b61010760048036038101906101029190610b31565b6106cd565b6040516101179493929190610d8d565b60405180910390f35b6101286107b2565b6040516101359190610d12565b60405180910390f35b61014661091e565b6040516101539190610d34565b60405180910390f35b61017660048036038101906101719190610b31565b610924565b005b60008081548092919061018a90610f82565b9190505550604051806080016040528060005481526020018281526020016000151581526020013373ffffffffffffffffffffffffffffffffffffffff168152506001600080548152602001908152602001600020600082015181600001556020820151816001019080519060200190610205929190610990565b5060408201518160020160006101000a81548160ff02191690831515021790555060608201518160020160016101000a81548173ffffffffffffffffffffffffffffffffffffffff021916908373ffffffffffffffffffffffffffffffffffffffff1602179055509050506002604051806080016040528060005481526020018381526020016000151581526020013373ffffffffffffffffffffffffffffffffffffffff1681525090806001815401808255809150506001900390600052602060002090600302016000909190919091506000820151816000015560208201518160010190805190602001906102fd929190610990565b5060408201518160020160006101000a81548160ff02191690831515021790555060608201518160020160016101000a81548173ffffffffffffffffffffffffffffffffffffffff021916908373ffffffffffffffffffffffffffffffffffffffff16021790555050507f05d0fb833127fc08168556d0e7ca9554fc3f6bc843b3b7d2bf1c35aea6bab66060005482600060405161039d93929190610d4f565b60405180910390a150565b600281815481106103b857600080fd5b90600052602060002090600302016000915090508060000154908060010180546103e190610f1f565b80601f016020809104026020016040519081016040528092919081815260200182805461040d90610f1f565b801561045a5780601f1061042f5761010080835404028352916020019161045a565b820191906000526020600020905b81548152906001019060200180831161043d57829003601f168201915b5050505050908060020160009054906101000a900460ff16908060020160019054906101000a900473ffffffffffffffffffffffffffffffffffffffff16905084565b600060016000838152602001908152602001600020604051806080016040529081600082015481526020016001820180546104d790610f1f565b80601f016020809104026020016040519081016040528092919081815260200182805461050390610f1f565b80156105505780601f1061052557610100808354040283529160200191610550565b820191906000526020600020905b81548152906001019060200180831161053357829003601f168201915b505050505081526020016002820160009054906101000a900460ff161515151581526020016002820160019054906101000a900473ffffffffffffffffffffffffffffffffffffffff1673ffffffffffffffffffffffffffffffffffffffff1673ffffffffffffffffffffffffffffffffffffffff16815250509050806040015115816040019015159081151581525050806001600084815260200190815260200160002060008201518160000155602082015181600101908051906020019061061b929190610990565b5060408201518160020160006101000a81548160ff02191690831515021790555060608201518160020160016101000a81548173ffffffffffffffffffffffffffffffffffffffff021916908373ffffffffffffffffffffffffffffffffffffffff1602179055509050507fbc9b38ef3e28b52270aeb098b26eb25282dbc554fc9e8104a6b787bfa8f7524082826020015183604001516040516106c193929190610d4f565b60405180910390a15050565b60016020528060005260406000206000915090508060000154908060010180546106f690610f1f565b80601f016020809104026020016040519081016040528092919081815260200182805461072290610f1f565b801561076f5780601f106107445761010080835404028352916020019161076f565b820191906000526020600020905b81548152906001019060200180831161075257829003601f168201915b5050505050908060020160009054906101000a900460ff16908060020160019054906101000a900473ffffffffffffffffffffffffffffffffffffffff16905084565b60606002805480602002602001604051908101604052809291908181526020016000905b8282101561091557838290600052602060002090600302016040518060800160405290816000820154815260200160018201805461081390610f1f565b80601f016020809104026020016040519081016040528092919081815260200182805461083f90610f1f565b801561088c5780601f106108615761010080835404028352916020019161088c565b820191906000526020600020905b81548152906001019060200180831161086f57829003601f168201915b505050505081526020016002820160009054906101000a900460ff161515151581526020016002820160019054906101000a900473ffffffffffffffffffffffffffffffffffffffff1673ffffffffffffffffffffffffffffffffffffffff1673ffffffffffffffffffffffffffffffffffffffff1681525050815260200190600101906107d6565b50505050905090565b60005481565b600160008281526020019081526020016000206000808201600090556001820160006109509190610a16565b6002820160006101000a81549060ff02191690556002820160016101000a81549073ffffffffffffffffffffffffffffffffffffffff0219169055505050565b82805461099c90610f1f565b90600052602060002090601f0160209004810192826109be5760008555610a05565b82601f106109d757805160ff1916838001178555610a05565b82800160010185558215610a05579182015b82811115610a045782518255916020019190600101906109e9565b5b509050610a129190610a56565b5090565b508054610a2290610f1f565b6000825580601f10610a345750610a53565b601f016020900490600052602060002090810190610a529190610a56565b5b50565b5b80821115610a6f576000816000905550600101610a57565b5090565b6000610a86610a8184610dfe565b610dd9565b905082815260208101848484011115610a9e57600080fd5b610aa9848285610edd565b509392505050565b600082601f830112610ac257600080fd5b8135610ad2848260208601610a73565b91505092915050565b600081359050610aea81611069565b92915050565b600060208284031215610b0257600080fd5b600082013567ffffffffffffffff811115610b1c57600080fd5b610b2884828501610ab1565b91505092915050565b600060208284031215610b4357600080fd5b6000610b5184828501610adb565b91505092915050565b6000610b668383610c91565b905092915050565b610b7781610e95565b82525050565b610b8681610e95565b82525050565b6000610b9782610e3f565b610ba18185610e62565b935083602082028501610bb385610e2f565b8060005b85811015610bef5784840389528151610bd08582610b5a565b9450610bdb83610e55565b925060208a01995050600181019050610bb7565b50829750879550505050505092915050565b610c0a81610ea7565b82525050565b610c1981610ea7565b82525050565b6000610c2a82610e4a565b610c348185610e73565b9350610c44818560208601610eec565b610c4d81611058565b840191505092915050565b6000610c6382610e4a565b610c6d8185610e84565b9350610c7d818560208601610eec565b610c8681611058565b840191505092915050565b6000608083016000830151610ca96000860182610cf4565b5060208301518482036020860152610cc18282610c1f565b9150506040830151610cd66040860182610c01565b506060830151610ce96060860182610b6e565b508091505092915050565b610cfd81610ed3565b82525050565b610d0c81610ed3565b82525050565b60006020820190508181036000830152610d2c8184610b8c565b905092915050565b6000602082019050610d496000830184610d03565b92915050565b6000606082019050610d646000830186610d03565b8181036020830152610d768185610c58565b9050610d856040830184610c10565b949350505050565b6000608082019050610da26000830187610d03565b8181036020830152610db48186610c58565b9050610dc36040830185610c10565b610dd06060830184610b7d565b95945050505050565b6000610de3610df4565b9050610def8282610f51565b919050565b6000604051905090565b600067ffffffffffffffff821115610e1957610e18611029565b5b610e2282611058565b9050602081019050919050565b6000819050602082019050919050565b600081519050919050565b600081519050919050565b6000602082019050919050565b600082825260208201905092915050565b600082825260208201905092915050565b600082825260208201905092915050565b6000610ea082610eb3565b9050919050565b60008115159050919050565b600073ffffffffffffffffffffffffffffffffffffffff82169050919050565b6000819050919050565b82818337600083830152505050565b60005b83811015610f0a578082015181840152602081019050610eef565b83811115610f19576000848401525b50505050565b60006002820490506001821680610f3757607f821691505b60208210811415610f4b57610f4a610ffa565b5b50919050565b610f5a82611058565b810181811067ffffffffffffffff82111715610f7957610f78611029565b5b80604052505050565b6000610f8d82610ed3565b91507fffffffffffffffffffffffffffffffffffffffffffffffffffffffffffffffff821415610fc057610fbf610fcb565b5b600182019050919050565b7f4e487b7100000000000000000000000000000000000000000000000000000000600052601160045260246000fd5b7f4e487b7100000000000000000000000000000000000000000000000000000000600052602260045260246000fd5b7f4e487b7100000000000000000000000000000000000000000000000000000000600052604160045260246000fd5b6000601f19601f8301169050919050565b61107281610ed3565b811461107d57600080fd5b5056fea2646970667358221220dd6d7a7c739a865a87afcc538461c2e341d6277f1dc6a1340060d5739b12881c64736f6c63430008040033",
  "immutableReferences": {},
  "source": "// SPDX-License-Identifier: MIT\r\npragma solidity 0.8.4;\r\n\r\n\r\ncontract TodoList {\r\n\r\n    // state variables written to blockchain\r\n    uint public taskCount = 0;\r\n\r\n\r\n    // Task Data Type\r\n    struct Task {\r\n        uint id;\r\n        string content;\r\n        bool completed;\r\n        address user;\r\n    }\r\n\r\n    // data structures for holding the tasks\r\n    // using mapping\r\n    mapping(uint => Task) public tasks;\r\n    // using array\r\n    Task[] public tasksArray; \r\n\r\n    // this is an ethereum event for clients\r\n    event TaskCreated(\r\n        uint id,\r\n        string content,\r\n        bool completed\r\n    );\r\n\r\n    event TaskCompleted(\r\n        uint id,\r\n        string content,\r\n        bool completed\r\n    );\r\n\r\n\r\n\r\n    // creates a task\r\n    function createTask(string memory _content) public {\r\n\r\n        taskCount ++;\r\n        // adding to the mapping\r\n        tasks[taskCount] = Task(taskCount, _content, false, msg.sender); \r\n        // adding to the array\r\n        tasksArray.push(Task(taskCount, _content, false, msg.sender));\r\n\r\n        emit TaskCreated(taskCount, _content, false);\r\n\r\n    }\r\n\r\n    function removeTask(uint _id) public {\r\n\r\n\r\n        delete(tasks[_id]);\r\n\r\n    }\r\n\r\n\r\n    // toggles completion of the task\r\n    function toggleCompleted(uint _id) public {\r\n\r\n        Task memory _task = tasks[_id];\r\n        // toggle by turning it to the opposite\r\n        _task.completed = !_task.completed;\r\n        tasks[_id] = _task;\r\n\r\n        emit TaskCompleted(_id, _task.content, _task.completed);\r\n    }\r\n\r\n    // returns an array of all of the tasks\r\n    function getTasksArray() public view returns(Task[] memory){\r\n        return tasksArray;\r\n    }\r\n\r\n    \r\n    constructor() {\r\n\r\n        // Create a base task on creation of the contract\r\n        createTask(\"Check out Zachcook.io\");\r\n    }\r\n\r\n}",
  "sourcePath": "C:/Users/Crypto Thoughts/Desktop/dev/crypto/ToDoDapp/smartcontracts/contracts/TodoList.sol",
  "compiler": {
    "name": "solc",
    "version": "0.8.4+commit.c7e474f2.Emscripten.clang"
  },
  "schemaVersion": "3.4.1",
  "updatedAt": "2021-06-14T19:46:07.388Z",
  "networkType": "ethereum",
  "devdoc": {
    "kind": "dev",
    "methods": {},
    "version": 1
  },
  "userdoc": {
    "kind": "user",
    "methods": {},
    "version": 1
  }
}