{
  "contractName": "TodoList",
  "abi": [
    {
      "inputs": [],
      "stateMutability": "nonpayable",
      "type": "constructor"
    },
    {
      "inputs": [],
      "name": "taskCount",
      "outputs": [
        {
          "internalType": "uint256",
          "name": "",
          "type": "uint256"
        }
      ],
      "stateMutability": "view",
      "type": "function",
      "constant": true
    },
    {
      "inputs": [
        {
          "internalType": "uint256",
          "name": "",
          "type": "uint256"
        }
      ],
      "name": "tasks",
      "outputs": [
        {
          "internalType": "uint256",
          "name": "id",
          "type": "uint256"
        },
        {
          "internalType": "string",
          "name": "content",
          "type": "string"
        },
        {
          "internalType": "bool",
          "name": "completed",
          "type": "bool"
        },
        {
          "internalType": "address",
          "name": "user",
          "type": "address"
        }
      ],
      "stateMutability": "view",
      "type": "function",
      "constant": true
    },
    {
      "inputs": [
        {
          "internalType": "uint256",
          "name": "",
          "type": "uint256"
        }
      ],
      "name": "tasksArray",
      "outputs": [
        {
          "internalType": "uint256",
          "name": "id",
          "type": "uint256"
        },
        {
          "internalType": "string",
          "name": "content",
          "type": "string"
        },
        {
          "internalType": "bool",
          "name": "completed",
          "type": "bool"
        },
        {
          "internalType": "address",
          "name": "user",
          "type": "address"
        }
      ],
      "stateMutability": "view",
      "type": "function",
      "constant": true
    },
    {
      "inputs": [
        {
          "internalType": "string",
          "name": "_content",
          "type": "string"
        }
      ],
      "name": "createTask",
      "outputs": [],
      "stateMutability": "nonpayable",
      "type": "function"
    },
    {
      "inputs": [],
      "name": "getTasksArray",
      "outputs": [
        {
          "components": [
            {
              "internalType": "uint256",
              "name": "id",
              "type": "uint256"
            },
            {
              "internalType": "string",
              "name": "content",
              "type": "string"
            },
            {
              "internalType": "bool",
              "name": "completed",
              "type": "bool"
            },
            {
              "internalType": "address",
              "name": "user",
              "type": "address"
            }
          ],
          "internalType": "struct TodoList.Task[]",
          "name": "",
          "type": "tuple[]"
        }
      ],
      "stateMutability": "view",
      "type": "function",
      "constant": true
    }
  ],
  "bytecode": "0x6080604052600080553480156200001557600080fd5b506200005c6040518060400160405280601581526020017f436865636b206f7574205a616368636f6f6b2e696f00000000000000000000008152506200006260201b60201c565b620003f6565b60008081548092919062000076906200034a565b9190505550604051806080016040528060005481526020018281526020016000151581526020013373ffffffffffffffffffffffffffffffffffffffff168152506001600080548152602001908152602001600020600082015181600001556020820151816001019080519060200190620000f39291906200025a565b5060408201518160020160006101000a81548160ff02191690831515021790555060608201518160020160016101000a81548173ffffffffffffffffffffffffffffffffffffffff021916908373ffffffffffffffffffffffffffffffffffffffff1602179055509050506002604051806080016040528060005481526020018381526020016000151581526020013373ffffffffffffffffffffffffffffffffffffffff168152509080600181540180825580915050600190039060005260206000209060030201600090919091909150600082015181600001556020820151816001019080519060200190620001ed9291906200025a565b5060408201518160020160006101000a81548160ff02191690831515021790555060608201518160020160016101000a81548173ffffffffffffffffffffffffffffffffffffffff021916908373ffffffffffffffffffffffffffffffffffffffff160217905550505050565b828054620002689062000314565b90600052602060002090601f0160209004810192826200028c5760008555620002d8565b82601f10620002a757805160ff1916838001178555620002d8565b82800160010185558215620002d8579182015b82811115620002d7578251825591602001919060010190620002ba565b5b509050620002e79190620002eb565b5090565b5b8082111562000306576000816000905550600101620002ec565b5090565b6000819050919050565b600060028204905060018216806200032d57607f821691505b60208210811415620003445762000343620003c7565b5b50919050565b600062000357826200030a565b91507fffffffffffffffffffffffffffffffffffffffffffffffffffffffffffffffff8214156200038d576200038c62000398565b5b600182019050919050565b7f4e487b7100000000000000000000000000000000000000000000000000000000600052601160045260246000fd5b7f4e487b7100000000000000000000000000000000000000000000000000000000600052602260045260246000fd5b610d0080620004066000396000f3fe608060405234801561001057600080fd5b50600436106100575760003560e01c8063111002aa1461005c57806333251a3a146100785780638d977672146100ab5780638dad5b53146100de578063b6cb58a5146100fc575b600080fd5b61007660048036038101906100719190610778565b61011a565b005b610092600480360381019061008d91906107b9565b61030c565b6040516100a294939291906109d7565b60405180910390f35b6100c560048036038101906100c091906107b9565b610401565b6040516100d594939291906109d7565b60405180910390f35b6100e66104e6565b6040516100f3919061099a565b60405180910390f35b610104610652565b60405161011191906109bc565b60405180910390f35b60008081548092919061012c90610bcc565b9190505550604051806080016040528060005481526020018281526020016000151581526020013373ffffffffffffffffffffffffffffffffffffffff1681525060016000805481526020019081526020016000206000820151816000015560208201518160010190805190602001906101a7929190610658565b5060408201518160020160006101000a81548160ff02191690831515021790555060608201518160020160016101000a81548173ffffffffffffffffffffffffffffffffffffffff021916908373ffffffffffffffffffffffffffffffffffffffff1602179055509050506002604051806080016040528060005481526020018381526020016000151581526020013373ffffffffffffffffffffffffffffffffffffffff16815250908060018154018082558091505060019003906000526020600020906003020160009091909190915060008201518160000155602082015181600101908051906020019061029f929190610658565b5060408201518160020160006101000a81548160ff02191690831515021790555060608201518160020160016101000a81548173ffffffffffffffffffffffffffffffffffffffff021916908373ffffffffffffffffffffffffffffffffffffffff160217905550505050565b6002818154811061031c57600080fd5b906000526020600020906003020160009150905080600001549080600101805461034590610b69565b80601f016020809104026020016040519081016040528092919081815260200182805461037190610b69565b80156103be5780601f10610393576101008083540402835291602001916103be565b820191906000526020600020905b8154815290600101906020018083116103a157829003601f168201915b5050505050908060020160009054906101000a900460ff16908060020160019054906101000a900473ffffffffffffffffffffffffffffffffffffffff16905084565b600160205280600052604060002060009150905080600001549080600101805461042a90610b69565b80601f016020809104026020016040519081016040528092919081815260200182805461045690610b69565b80156104a35780601f10610478576101008083540402835291602001916104a3565b820191906000526020600020905b81548152906001019060200180831161048657829003601f168201915b5050505050908060020160009054906101000a900460ff16908060020160019054906101000a900473ffffffffffffffffffffffffffffffffffffffff16905084565b60606002805480602002602001604051908101604052809291908181526020016000905b8282101561064957838290600052602060002090600302016040518060800160405290816000820154815260200160018201805461054790610b69565b80601f016020809104026020016040519081016040528092919081815260200182805461057390610b69565b80156105c05780601f10610595576101008083540402835291602001916105c0565b820191906000526020600020905b8154815290600101906020018083116105a357829003601f168201915b505050505081526020016002820160009054906101000a900460ff161515151581526020016002820160019054906101000a900473ffffffffffffffffffffffffffffffffffffffff1673ffffffffffffffffffffffffffffffffffffffff1673ffffffffffffffffffffffffffffffffffffffff16815250508152602001906001019061050a565b50505050905090565b60005481565b82805461066490610b69565b90600052602060002090601f01602090048101928261068657600085556106cd565b82601f1061069f57805160ff19168380011785556106cd565b828001600101855582156106cd579182015b828111156106cc5782518255916020019190600101906106b1565b5b5090506106da91906106de565b5090565b5b808211156106f75760008160009055506001016106df565b5090565b600061070e61070984610a48565b610a23565b90508281526020810184848401111561072657600080fd5b610731848285610b27565b509392505050565b600082601f83011261074a57600080fd5b813561075a8482602086016106fb565b91505092915050565b60008135905061077281610cb3565b92915050565b60006020828403121561078a57600080fd5b600082013567ffffffffffffffff8111156107a457600080fd5b6107b084828501610739565b91505092915050565b6000602082840312156107cb57600080fd5b60006107d984828501610763565b91505092915050565b60006107ee8383610919565b905092915050565b6107ff81610adf565b82525050565b61080e81610adf565b82525050565b600061081f82610a89565b6108298185610aac565b93508360208202850161083b85610a79565b8060005b85811015610877578484038952815161085885826107e2565b945061086383610a9f565b925060208a0199505060018101905061083f565b50829750879550505050505092915050565b61089281610af1565b82525050565b6108a181610af1565b82525050565b60006108b282610a94565b6108bc8185610abd565b93506108cc818560208601610b36565b6108d581610ca2565b840191505092915050565b60006108eb82610a94565b6108f58185610ace565b9350610905818560208601610b36565b61090e81610ca2565b840191505092915050565b6000608083016000830151610931600086018261097c565b506020830151848203602086015261094982826108a7565b915050604083015161095e6040860182610889565b50606083015161097160608601826107f6565b508091505092915050565b61098581610b1d565b82525050565b61099481610b1d565b82525050565b600060208201905081810360008301526109b48184610814565b905092915050565b60006020820190506109d1600083018461098b565b92915050565b60006080820190506109ec600083018761098b565b81810360208301526109fe81866108e0565b9050610a0d6040830185610898565b610a1a6060830184610805565b95945050505050565b6000610a2d610a3e565b9050610a398282610b9b565b919050565b6000604051905090565b600067ffffffffffffffff821115610a6357610a62610c73565b5b610a6c82610ca2565b9050602081019050919050565b6000819050602082019050919050565b600081519050919050565b600081519050919050565b6000602082019050919050565b600082825260208201905092915050565b600082825260208201905092915050565b600082825260208201905092915050565b6000610aea82610afd565b9050919050565b60008115159050919050565b600073ffffffffffffffffffffffffffffffffffffffff82169050919050565b6000819050919050565b82818337600083830152505050565b60005b83811015610b54578082015181840152602081019050610b39565b83811115610b63576000848401525b50505050565b60006002820490506001821680610b8157607f821691505b60208210811415610b9557610b94610c44565b5b50919050565b610ba482610ca2565b810181811067ffffffffffffffff82111715610bc357610bc2610c73565b5b80604052505050565b6000610bd782610b1d565b91507fffffffffffffffffffffffffffffffffffffffffffffffffffffffffffffffff821415610c0a57610c09610c15565b5b600182019050919050565b7f4e487b7100000000000000000000000000000000000000000000000000000000600052601160045260246000fd5b7f4e487b7100000000000000000000000000000000000000000000000000000000600052602260045260246000fd5b7f4e487b7100000000000000000000000000000000000000000000000000000000600052604160045260246000fd5b6000601f19601f8301169050919050565b610cbc81610b1d565b8114610cc757600080fd5b5056fea26469706673582212201bb23a6d79de9a304fe2604dc8b43129b82066f3f5a069e031e780b834d67c2664736f6c63430008040033",
  "immutableReferences": {},
  "source": "// SPDX-License-Identifier: MIT\r\npragma solidity 0.8.4;\r\n\r\n\r\ncontract TodoList {\r\n\r\n    // state variables written to blockchain\r\n    uint public taskCount = 0;\r\n\r\n\r\n    // Data Type\r\n    struct Task {\r\n        uint id;\r\n        string content;\r\n        bool completed;\r\n        address user;\r\n    }\r\n\r\n\r\n    mapping(uint => Task) public tasks;\r\n    Task[] public tasksArray; \r\n\r\n    // creates a task\r\n    function createTask(string memory _content) public {\r\n\r\n        taskCount ++;\r\n        tasks[taskCount] = Task(taskCount, _content, false, msg.sender); \r\n        tasksArray.push(Task(taskCount, _content, false, msg.sender));\r\n    }\r\n\r\n    // returns an array of all of the tasks\r\n    function getTasksArray() public view returns(Task[] memory){\r\n        return tasksArray;\r\n    }\r\n\r\n    \r\n    constructor() {\r\n\r\n        // Create a base task on creation of the contract\r\n        createTask(\"Check out Zachcook.io\");\r\n    }\r\n\r\n}",
  "sourcePath": "C:/Users/Crypto Thoughts/Desktop/dev/crypto/ToDoDapp/smartcontracts/contracts/TodoList.sol",
  "compiler": {
    "name": "solc",
    "version": "0.8.4+commit.c7e474f2.Emscripten.clang"
  },
  "schemaVersion": "3.4.1",
  "updatedAt": "2021-06-12T21:04:12.993Z",
  "networkType": "ethereum",
  "devdoc": {
    "kind": "dev",
    "methods": {},
    "version": 1
  },
  "userdoc": {
    "kind": "user",
    "methods": {},
    "version": 1
  }
}