{
  "contractName": "TodoList",
  "abi": [
    {
      "inputs": [],
      "stateMutability": "nonpayable",
      "type": "constructor"
    },
    {
      "anonymous": false,
      "inputs": [
        {
          "indexed": false,
          "internalType": "uint256",
          "name": "id",
          "type": "uint256"
        },
        {
          "indexed": false,
          "internalType": "string",
          "name": "content",
          "type": "string"
        },
        {
          "indexed": false,
          "internalType": "bool",
          "name": "completed",
          "type": "bool"
        }
      ],
      "name": "TaskEvent",
      "type": "event"
    },
    {
      "inputs": [],
      "name": "taskCount",
      "outputs": [
        {
          "internalType": "uint256",
          "name": "",
          "type": "uint256"
        }
      ],
      "stateMutability": "view",
      "type": "function",
      "constant": true
    },
    {
      "inputs": [
        {
          "internalType": "uint256",
          "name": "",
          "type": "uint256"
        }
      ],
      "name": "tasks",
      "outputs": [
        {
          "internalType": "uint256",
          "name": "id",
          "type": "uint256"
        },
        {
          "internalType": "string",
          "name": "content",
          "type": "string"
        },
        {
          "internalType": "bool",
          "name": "completed",
          "type": "bool"
        }
      ],
      "stateMutability": "view",
      "type": "function",
      "constant": true
    },
    {
      "inputs": [],
      "name": "userCount",
      "outputs": [
        {
          "internalType": "uint256",
          "name": "",
          "type": "uint256"
        }
      ],
      "stateMutability": "view",
      "type": "function",
      "constant": true
    },
    {
      "inputs": [
        {
          "internalType": "address",
          "name": "",
          "type": "address"
        }
      ],
      "name": "users",
      "outputs": [
        {
          "internalType": "address",
          "name": "userAddress",
          "type": "address"
        },
        {
          "internalType": "uint256",
          "name": "id",
          "type": "uint256"
        }
      ],
      "stateMutability": "view",
      "type": "function",
      "constant": true
    },
    {
      "inputs": [
        {
          "internalType": "string",
          "name": "_content",
          "type": "string"
        }
      ],
      "name": "createTask",
      "outputs": [],
      "stateMutability": "nonpayable",
      "type": "function"
    },
    {
      "inputs": [
        {
          "internalType": "uint256",
          "name": "_id",
          "type": "uint256"
        }
      ],
      "name": "removeTask",
      "outputs": [],
      "stateMutability": "nonpayable",
      "type": "function"
    },
    {
      "inputs": [
        {
          "internalType": "uint256",
          "name": "_id",
          "type": "uint256"
        }
      ],
      "name": "toggleCompleted",
      "outputs": [],
      "stateMutability": "nonpayable",
      "type": "function"
    }
  ],
  "bytecode": "0x60806040526000805560006001553480156200001a57600080fd5b50620000616040518060400160405280601581526020017f436865636b206f7574205a616368636f6f6b2e696f00000000000000000000008152506200006760201b60201c565b620003f5565b6000808154809291906200007b9062000338565b919050555060405180606001604052806000548152602001828152602001600015158152506003600080548152602001908152602001600020600082015181600001556020820151816001019080519060200190620000dc92919062000143565b5060408201518160020160006101000a81548160ff0219169083151502179055509050507f0a76fbd31035c1e6f90f68610447e2810f3f7579b358eafc9ef8f55640be9a52600054826000604051620001389392919062000256565b60405180910390a150565b828054620001519062000302565b90600052602060002090601f016020900481019282620001755760008555620001c1565b82601f106200019057805160ff1916838001178555620001c1565b82800160010185558215620001c1579182015b82811115620001c0578251825591602001919060010190620001a3565b5b509050620001d09190620001d4565b5090565b5b80821115620001ef576000816000905550600101620001d5565b5090565b620001fe81620002b6565b82525050565b600062000211826200029a565b6200021d8185620002a5565b93506200022f818560208601620002cc565b6200023a81620003e4565b840191505092915050565b6200025081620002c2565b82525050565b60006060820190506200026d600083018662000245565b818103602083015262000281818562000204565b9050620002926040830184620001f3565b949350505050565b600081519050919050565b600082825260208201905092915050565b60008115159050919050565b6000819050919050565b60005b83811015620002ec578082015181840152602081019050620002cf565b83811115620002fc576000848401525b50505050565b600060028204905060018216806200031b57607f821691505b60208210811415620003325762000331620003b5565b5b50919050565b60006200034582620002c2565b91507fffffffffffffffffffffffffffffffffffffffffffffffffffffffffffffffff8214156200037b576200037a62000386565b5b600182019050919050565b7f4e487b7100000000000000000000000000000000000000000000000000000000600052601160045260246000fd5b7f4e487b7100000000000000000000000000000000000000000000000000000000600052602260045260246000fd5b6000601f19601f8301169050919050565b610be980620004056000396000f3fe608060405234801561001057600080fd5b506004361061007d5760003560e01c80638d9776721161005b5780638d977672146100d8578063a87430ba1461010a578063b6cb58a51461013b578063c3084117146101595761007d565b806307973ccf14610082578063111002aa146100a0578063455f5024146100bc575b600080fd5b61008a610175565b60405161009791906108e6565b60405180910390f35b6100ba60048036038101906100b591906107ed565b61017b565b005b6100d660048036038101906100d1919061082e565b610251565b005b6100f260048036038101906100ed919061082e565b6103e4565b60405161010193929190610901565b60405180910390f35b610124600480360381019061011f91906107c4565b6104a3565b6040516101329291906108bd565b60405180910390f35b6101436104e7565b60405161015091906108e6565b60405180910390f35b610173600480360381019061016e919061082e565b6104ed565b005b60015481565b60008081548092919061018d90610a9e565b9190505550604051806060016040528060005481526020018281526020016000151581525060036000805481526020019081526020016000206000820151816000015560208201518160010190805190602001906101ec92919061064f565b5060408201518160020160006101000a81548160ff0219169083151502179055509050507f0a76fbd31035c1e6f90f68610447e2810f3f7579b358eafc9ef8f55640be9a5260005482600060405161024693929190610901565b60405180910390a150565b6000600360008381526020019081526020016000206040518060600160405290816000820154815260200160018201805461028b90610a3b565b80601f01602080910402602001604051908101604052809291908181526020018280546102b790610a3b565b80156103045780601f106102d957610100808354040283529160200191610304565b820191906000526020600020905b8154815290600101906020018083116102e757829003601f168201915b505050505081526020016002820160009054906101000a900460ff1615151515815250509050806040015115816040019015159081151581525050806003600084815260200190815260200160002060008201518160000155602082015181600101908051906020019061037992919061064f565b5060408201518160020160006101000a81548160ff0219169083151502179055509050507f0a76fbd31035c1e6f90f68610447e2810f3f7579b358eafc9ef8f55640be9a5282826020015183604001516040516103d893929190610901565b60405180910390a15050565b600360205280600052604060002060009150905080600001549080600101805461040d90610a3b565b80601f016020809104026020016040519081016040528092919081815260200182805461043990610a3b565b80156104865780601f1061045b57610100808354040283529160200191610486565b820191906000526020600020905b81548152906001019060200180831161046957829003601f168201915b5050505050908060020160009054906101000a900460ff16905083565b60026020528060005260406000206000915090508060000160009054906101000a900473ffffffffffffffffffffffffffffffffffffffff16908060010154905082565b60005481565b6000600360008381526020019081526020016000206040518060600160405290816000820154815260200160018201805461052790610a3b565b80601f016020809104026020016040519081016040528092919081815260200182805461055390610a3b565b80156105a05780601f10610575576101008083540402835291602001916105a0565b820191906000526020600020905b81548152906001019060200180831161058357829003601f168201915b505050505081526020016002820160009054906101000a900460ff1615151515815250509050600360008381526020019081526020016000206000808201600090556001820160006105f291906106d5565b6002820160006101000a81549060ff021916905550507f0a76fbd31035c1e6f90f68610447e2810f3f7579b358eafc9ef8f55640be9a52828260200151836040015160405161064393929190610901565b60405180910390a15050565b82805461065b90610a3b565b90600052602060002090601f01602090048101928261067d57600085556106c4565b82601f1061069657805160ff19168380011785556106c4565b828001600101855582156106c4579182015b828111156106c35782518255916020019190600101906106a8565b5b5090506106d19190610715565b5090565b5080546106e190610a3b565b6000825580601f106106f35750610712565b601f0160209004906000526020600020908101906107119190610715565b5b50565b5b8082111561072e576000816000905550600101610716565b5090565b600061074561074084610964565b61093f565b90508281526020810184848401111561075d57600080fd5b6107688482856109f9565b509392505050565b60008135905061077f81610b85565b92915050565b600082601f83011261079657600080fd5b81356107a6848260208601610732565b91505092915050565b6000813590506107be81610b9c565b92915050565b6000602082840312156107d657600080fd5b60006107e484828501610770565b91505092915050565b6000602082840312156107ff57600080fd5b600082013567ffffffffffffffff81111561081957600080fd5b61082584828501610785565b91505092915050565b60006020828403121561084057600080fd5b600061084e848285016107af565b91505092915050565b610860816109b1565b82525050565b61086f816109c3565b82525050565b600061088082610995565b61088a81856109a0565b935061089a818560208601610a08565b6108a381610b74565b840191505092915050565b6108b7816109ef565b82525050565b60006040820190506108d26000830185610857565b6108df60208301846108ae565b9392505050565b60006020820190506108fb60008301846108ae565b92915050565b600060608201905061091660008301866108ae565b81810360208301526109288185610875565b90506109376040830184610866565b949350505050565b600061094961095a565b90506109558282610a6d565b919050565b6000604051905090565b600067ffffffffffffffff82111561097f5761097e610b45565b5b61098882610b74565b9050602081019050919050565b600081519050919050565b600082825260208201905092915050565b60006109bc826109cf565b9050919050565b60008115159050919050565b600073ffffffffffffffffffffffffffffffffffffffff82169050919050565b6000819050919050565b82818337600083830152505050565b60005b83811015610a26578082015181840152602081019050610a0b565b83811115610a35576000848401525b50505050565b60006002820490506001821680610a5357607f821691505b60208210811415610a6757610a66610b16565b5b50919050565b610a7682610b74565b810181811067ffffffffffffffff82111715610a9557610a94610b45565b5b80604052505050565b6000610aa9826109ef565b91507fffffffffffffffffffffffffffffffffffffffffffffffffffffffffffffffff821415610adc57610adb610ae7565b5b600182019050919050565b7f4e487b7100000000000000000000000000000000000000000000000000000000600052601160045260246000fd5b7f4e487b7100000000000000000000000000000000000000000000000000000000600052602260045260246000fd5b7f4e487b7100000000000000000000000000000000000000000000000000000000600052604160045260246000fd5b6000601f19601f8301169050919050565b610b8e816109b1565b8114610b9957600080fd5b50565b610ba5816109ef565b8114610bb057600080fd5b5056fea26469706673582212205a7ee7edf2204058c9ee663e15cfd140abf07476ed393808312c0c5cb5a4ec4364736f6c63430008040033",
  "immutableReferences": {},
  "source": "// SPDX-License-Identifier: MIT\r\npragma solidity 0.8.4;\r\n\r\n\r\ncontract TodoList {\r\n\r\n    // state variables written to blockchain\r\n    uint public taskCount = 0;\r\n    uint public userCount = 0;\r\n\r\n    // Task Data Type\r\n    struct Task {\r\n        uint id;\r\n        string content;\r\n        bool completed;\r\n    }\r\n\r\n    // // Data type for storing the users task\r\n    struct User {\r\n        address userAddress; // this will act as a foreign key \r\n        uint id;\r\n        Task[] tasksArray;\r\n    }\r\n\r\n    // keep mapping of users\r\n    mapping(address => User) public users;\r\n    // data structures for holding the tasks\r\n    // using mapping\r\n    mapping(uint => Task) public tasks;\r\n    \r\n\r\n\r\n    // this is an ethereum event for clients\r\n    event TaskEvent(\r\n        uint id,\r\n        string content,\r\n        bool completed\r\n    );\r\n\r\n\r\n    // creates a task\r\n    function createTask(string memory _content) public {\r\n\r\n        taskCount ++;\r\n        // adding to the mapping\r\n        tasks[taskCount] = Task(taskCount, _content, false); \r\n\r\n        // if in the users mapping the address is equal to the sender\r\n        // this basically means the user has posted a before\r\n        // if (users[msg.sender].userAddress == msg.sender){\r\n        //     users[msg.sender].tasksArray.push(Task(taskCount, _content, false));\r\n        // } else {\r\n             \r\n        //     userCount ++;\r\n        //     // Task[] taskArr = [];\r\n        //     User(msg.sender, userCount, Task(taskCount, _content, false));\r\n        // }\r\n        \r\n\r\n        emit TaskEvent(taskCount, _content, false);\r\n\r\n    }\r\n\r\n    function removeTask(uint _id) public {\r\n\r\n        Task memory _task = tasks[_id];\r\n\r\n        delete(tasks[_id]);\r\n\r\n        emit TaskEvent(_id, _task.content, _task.completed);\r\n    }\r\n\r\n\r\n    // toggles completion of the task\r\n    function toggleCompleted(uint _id) public {\r\n\r\n        Task memory _task = tasks[_id];\r\n        // toggle by turning it to the opposite\r\n        _task.completed = !_task.completed;\r\n        tasks[_id] = _task;\r\n\r\n        emit TaskEvent(_id, _task.content, _task.completed);\r\n    }\r\n \r\n    constructor() {\r\n\r\n        // Create a base task on creation of the contract\r\n        createTask(\"Check out Zachcook.io\");\r\n    }\r\n\r\n}",
  "sourcePath": "C:/Users/Crypto Thoughts/Desktop/dev/crypto/ToDoDapp/smartcontracts/contracts/TodoList.sol",
  "compiler": {
    "name": "solc",
    "version": "0.8.4+commit.c7e474f2.Emscripten.clang"
  },
  "schemaVersion": "3.4.1",
  "updatedAt": "2021-06-15T21:23:05.206Z",
  "networkType": "ethereum",
  "devdoc": {
    "kind": "dev",
    "methods": {},
    "version": 1
  },
  "userdoc": {
    "kind": "user",
    "methods": {},
    "version": 1
  }
}